:1000000000000120BD020000E5020000E702000040
:10001000E9020000EB020000ED0200000000000019
:10002000000000000000000000000000EF020000DF
:10003000F102000000000000F3020000F5020000E1
:1000400075270000F7020000C12C0000F702000035
:10005000F7020000F7020000B1280000F7020000DC
:10006000B92B0000112C0000692C0000E1270000D2
:10007000F7020000F7020000F7020000F70200009C
:10008000F70200003D0F0000F7020000F702000039
:10009000DD0F0000F7020000F7020000F702000089
:1000A000F7020000F7020000F7020000F70200006C
:1000B000F7020000F702000000000000000000004E
:1000C000F7020000F7020000F7020000F70200004C
:1000D000F7020000F7020000F70200000000000035
:1000E0000000000000000000000000000000000010
:1000F0000000000000000000000000000000000000
:1001000000000000000000000000000000000000EF
:1001100000000000000000000000000000000000DF
:1001200000000000000000000000000000000000CF
:1001300000000000000000000000000000000000BF
:1001400000000000000000000000000000000000AF
:10015000000000000000000000000000000000009F
:10016000000000000000000000000000000000008F
:10017000000000000000000000000000000000007F
:10018000000000000000000000000000000000006F
:10019000000000000000000000000000000000005F
:1001A000000000000000000000000000000000004F
:1001B000000000000000000000000000000000003F
:1001C000000000000000000000000000000000002F
:1001D000000000000000000000000000000000001F
:1001E000000000000000000000000000000000000F
:1001F00000000000000000000000000000000000FF
:1002000010B5054C237833B9044B13B10448AFF350
:1002100000800123237010BD980000200000000022
:10022000C050000008B5034B1BB103490348AFF3AE
:10023000008008BD000000009C000020C0500000AD
:10024000A3F5803A704700BF174B002B08BF134B34
:100250009D46FFF7F5FF00218B460F461348144AD1
:10026000121A03F035FD0E4B002B00D098470D4BB2
:10027000002B00D098470020002104000D000D48FD
:10028000002802D00C48AFF3008003F0DFFC200010
:10029000290003F055FA03F0B3FC00BF000008008A
:1002A0000000000000000000000001209800002075
:1002B000780C002000000000000000000649074AFA
:1002C000074B9B1A03DD043BC858D050FBDC03F0FE
:1002D000BDFAFFF7B9FF00008C51000000000020BC
:1002E00098000020FEE7FEE7FEE7FEE7FEE7FEE7F8
:1002F000FEE7FEE7FEE7FEE7F0B595B000241D46F9
:100300000E460846174602F061F83046234608229A
:10031000099505A91A9D08970D950A948DF82C400A
:100320000C9402F0B7F89DF814308DF81140DDE917
:10033000061003F00302012ACDE9020128D0022AA7
:1003400004D0304602F046F815B0F0BDBDF81650A6
:10035000C3F3C2038DF81030C5F389150827082DA3
:100360002C4628BF08243B4622460EA9304602F000
:1003700091F82D1B214608AB02AA0EA8274400F0D5
:100380003FFC002DEBD1304602F024F815B0F0BD53
:10039000BDF81470059DC7F38312C3F3C2040EA900
:1003A0003046920008238DF81040C7F3831702F0FF
:1003B00071F8C5F3952508AB3A4628460EA9009377
:1003C00002AB00F0A5FB304602F004F815B0F0BD1A
:1003D000014B01221A707047F8000020704700BFDF
:1003E00000B583B0044B0093044A4023FFF784FF19
:1003F00003B05DF804FB00BF01040000B80000205A
:1004000038B50E480E4D03780E4CEB5C0025257078
:10041000D2B253B1043003F023F958B90A4B1B7818
:1004200013B12378002BFCD038BD0C3002F08EFEC7
:100430000028F3D000F086FCF0E700BF00000020A9
:10044000680C0020F8000020B40000202DE9704363
:1004500019481A4A0378D35C88B02BB3043003F0F0
:100460007BF8174D0FCD6C460FC495E80F004FF089
:10047000EB7684E80F004FF006084FF0FF394FF09D
:10048000FF344FF0FF350C48069600226946CDE94F
:100490000089CDE9024502F073F848B9094B002202
:1004A0001A7008B0BDE870830C3002F0E9FDD8E79F
:1004B00000F048FCF2E700BF00000020680C0020BC
:1004C000C84C0000B4000020F0B5154D0FCD89B028
:1004D0006C460FC495E80F004FF0EB7C84E80F00EA
:1004E00006264FF0FF374FF0FF344FF0FF350D4A2F
:1004F0000D48CDF818C06946CDE90067CDE9024541
:1005000002F03EF820B9094B01221A7009B0F0BD83
:1005100000F018FC054B01221A7009B0F0BD00BFB5
:10052000C84C0000D103000000000020B4000020EF
:1005300008B5FFF7C9FF0448042100F065FA034B32
:1005400001225A7108BD00BF4C5100001400002068
:1005500038B50C4B0C48002400250022C3E90045A7
:10056000FF21C3F81824996083F82024C3F81424C9
:1005700001F0E0FE044610B9044801F0BFFF204638
:1005800038BD00BFD00100205C510000204D0000AC
:1005900099B10E4B0E495B1ADB0815D030B400221E
:1005A0000C4D02E0013293420BD035F822408442D8
:1005B000F8D151F8320030BC7047054951F830008D
:1005C0007047002030BC7047184670474C510000FF
:1005D000EC50000094000020094B013903EBC000EF
:1005E00003290BD8DFE801F0040208060420704755
:1005F00002207047407970470079704700207047AB
:10060000EC5000002DE9F047934CD4E900239A42C6
:1006100084B063D00023C4F81834BFF34F8FD4E9FB
:10062000013503EA0501CA1C04EB820614F82220F6
:10063000500719D52768327802F00302012A43D007
:10064000022A03D17288023303EB921305EA0301F5
:10065000D4F81804CA1C04EB820628B99F4239D981
:1006600014F822205207E6D404EB81015A1CC96811
:1006700001912A4004EB820201F00301D268029248
:10068000022903F102062DD0012900F09080D4F850
:1006900010543DB12B6828469B689847EB681D684D
:1006A000002DF7D16D486E4B6E49C01AC00800048A
:1006B00040F0020000F0DCF8D4E90030C01A18BFA6
:1006C000012004B0BDE8F08732880233C2F3831200
:1006D0001344BBE7676004B0BDE8F087002004B0B6
:1006E000BDE8F087BDF806305F48C3F38919B9F15A
:1006F000500FC84628BF4FF0500868F38F1308F119
:100700000801ADF8063001F017FE07460028BED0FC
:1007100001F05CFE0023082201A9384601F086FEA4
:1007200025EA06030133B8EB830F4FEA830A78D931
:10073000BAF1000F00F0888005EA06010331A8EB4A
:100740000A0804EB81010823524638465FFA88F80C
:1007500001F06CFE454942460AF10803384601F0B3
:1007600065FE09F1030906EB9906D4F81834002B4D
:1007700066D1D4F8105465B1EB685A7928463946E9
:10078000002A59D02B681B689847EB681D68002D1C
:10079000F2D1384601F01EFE002000F01BFBD4F819
:1007A000183403B96660002000F01CFB84E7BDF834
:1007B00004302D48C3F38312062A28BF0622911C59
:1007C00062F389138900ADF8043001F0B5FD0746E6
:1007D00000283FF45CAF01F0F9FD0023082201A9D5
:1007E000384601F023FEBDF8043013F4707FBCD00E
:1007F0004FF00008314629404FEA8803033108339F
:1008000004EB81010422384601F010FEBDF80430EB
:1008100008F10108C3F38313434506F10106E9D843
:10082000A3E705EA0601033104EB810142460823F0
:10083000384601F0FBFD94E71D68002D9CD1A8E728
:10084000384601F0C7FD37E70849424608233846D5
:1008500001F0ECFD85E700BFD00100202C51000025
:10086000EC500000084D00005C510000DC0100204D
:100870002DE9F04F624C87B006460020A568019133
:1008800000F0A8FAD4E9012327681A440132D21BE8
:10089000012A00F2858004F21C4804F5836A04F200
:1008A00014491BE0BDF80E30C3F389130333090C60
:1008B0000BEB930B4846009100F0D8FA0099002802
:1008C0003ED04046C4F804B000F0A4FAD4E90113C5
:1008D000226819440131891A012962D80121404650
:1008E00000F098FA504600F0B1FA484600F0AEFA2F
:1008F000D4E9013C03EA0C02D11C04EB810014F89A
:1009000021E01EF0040F0EF0040129D104EB820255
:10091000591CD268039201EA0C0104EB810102F038
:100920000302012AC96803F1020B32D0022AB9D0AE
:1009300000214846009100F099FA00990028C0D1A2
:100940004046C1E743880BEB93130CEA0302D11C2A
:1009500004EB810014F8211001F004010029D5D026
:1009600090F800E00EF0030EBEF1010F0BD0BEF1C7
:10097000020F03F1020B02F1030EE3D004EB8E0031
:100980000029EDD1C2E702880233C2F38312134477
:10099000DBE7BDF80C30C3F38313090C9B4489E7F4
:1009A0003A461340033302320521002044F8231055
:1009B000226000F017FA0021124800F01DFA80F3BF
:1009C0001000F1007B1C2B40019A01F038013D40E2
:1009D00004EB830341F001010004033540EA1646AD
:1009E00041EA8221DE6044F8251094F820341BB1DE
:1009F000FFF708FE0028FBD107B0BDE8F08F00BF6D
:100A0000D0010020EC05002030B4154DD5F81014AD
:100A10000446002071B10B4601E01B6853B1DB684E
:100A20001A798242F9D101300A28F3D14FF0FF3010
:100A300030BC7047E3681871D5F810344BB1DA68F0
:100A4000E36812681A60D5F81034DB681C6030BCAB
:100A50007047C5F81044E268136030BC704700BFAF
:100A6000D001002038B5094BD3F81044012583F894
:100A700020544CB1E3685D71236820465B68984759
:100A8000E3681C68002CF5D138BD00BFD001002000
:100A900030B5C38885B004460D461BBB217A0529B5
:100AA0001ED0627A82B9134AA08852F8212003929C
:100AB0000021FFF76DFD039A0F490346284605B054
:100AC000BDE8304000F03EBDA088FFF785FD0B4B30
:100AD0000B4953F82020284600F034FD217AE2E744
:100AE00005B030BD074A00920749084A284600F081
:100AF00029FDD3E7F84D0000584D0000D44D00000B
:100B0000544D00004C4D0000344D00002C4D0000B1
:100B10002DE9F04385B04FF0000C0C9C814694F811
:100B20000C8084F80CC00E461746184621461D4618
:100B3000FFF7AEFF062F09D8DFE807F0042E343B9D
:100B4000444F1F004946204600F0FCFC2B7A052B41
:100B500005D06B7A5BB92749204600F0F3FC2046AC
:100B600000F0E4FC84F80C8005B0BDE8F083224A74
:100B70002249204600F0E6FCEDE7D6E90413F268CE
:100B80000393B3680291CDE900324946D6E90023C8
:100B9000204600F0D7FCD9E732684946204600F0ED
:100BA000D1FCD3E7D6E900234946204600F0CAFC31
:100BB000CCE7B3680093D6E900234946204600F00D
:100BC000C1FCC3E7D6E9023201920093D6E90023C3
:100BD0004946204600F0B6FCB8E7D6E90321B368E1
:100BE0000291CDE900324946D6E90023204600F0C3
:100BF000A9FCABE7644D00004C4D0000544D0000D3
:100C0000082900D970472DE9F04F9B4683B0002496
:100C10001B7B8BF80C400D46064659461046904605
:100C20000193DFF8D0902C4FFFF732FF05E0325DE3
:100C3000013400F087FC082C09D0A54239465846FB
:100C4000F5D84946013400F07DFC082CF5D1234944
:100C5000DFF8A490224C234F584600F073FC4FF06D
:100C6000000A0DE0D15D11F0970F08BF2E2221463A
:100C700058460AF1010A00F065FCBAF1080F10D0DD
:100C8000554505D916F80A207E2AEBD92E22EEE723
:100C9000494658460AF1010A00F054FCBAF1080F1F
:100CA000EED198F80830052B02D098F8093063B9D6
:100CB0000D49584600F046FC584600F037FC019BB1
:100CC0008BF80C3003B0BDE8F08F084A084958464D
:100CD00000F038FCECE700BF684D0000744D0000E8
:100CE000784D0000254F0000644D00004C4D000081
:100CF000544D0000704D0000604D0000C10719D533
:100D00004FF0A043032210B44FF40021C3F844274E
:100D10004FF40034C3F84C278207C3F80C45C3F8DE
:100D20000C1504D54FF0A0430C22C3F81C275DF826
:100D3000044B7047830742BF4FF0A0430C22C3F817
:100D40001C27704700B585B00346002101AA44F274
:100D50000100CDE90111039300F004F805B05DF83E
:100D600004FB00BF10B572B6FFF77CFEFFF74AFC2C
:100D70000028FBD1104B114C1149E41AE40824045B
:100D800044F00100FFF774FD0E4B1B68DB0700D534
:100D900000BE0D4944F00200FFF76AFDBFF34F8F1C
:100DA0000A490B4BCA6802F4E0621343CB60BFF3FD
:100DB0004F8F00BFFDE700BFEC5000002C5100003A
:100DC0000C4E0000F0ED00E0184E000000ED00E0D9
:100DD0000400FA0572B6024A1368013313607047C3
:100DE0008C060020034A1368013B136003B962B606
:100DF000704700BF8C06002010B4034653E8000F74
:100E00000A4643E8002494F0000FF7D15DF8044B44
:100E1000704700BF10B4034653E8002F02EB0100F7
:100E200043E8000494F0000FF6D15DF8044B7047DE
:100E300010B4034653E8002FA2EB010043E800047E
:100E400094F0000FF6D15DF8044B704710B40346E0
:100E5000012253E8001F41EA020043E8000494F035
:100E6000000FF6D15DF8044B704700BF10B4034685
:100E7000002253E8000F00EA020143E8001494F056
:100E8000000FF6D15DF8044B704700BFB8B130B425
:100E9000D0E90112521A0468D2B2531E2160DBB2AB
:100EA00042B101680A685C1E551C0D601370E3B204
:100EB000FF2BF6D103680020187130BC70470E205C
:100EC000704700BF38B504460020FFF783FFD4E920
:100ED00000311A688A4215D9511E19602168A36829
:100EE0000868258A12F8012CE4681B1A0879DBB21D
:100EF000984205FB024400D20B710020FFF772FFFD
:100F0000204638BD00240020FFF76CFF204638BD86
:100F100038B5054600200C46FFF75CFF2A681368C9
:100F2000591C1160E9682A8A641AB4FBF2F41C7037
:100F3000BDE838400020FFF755BF00BFF8B5204995
:100F4000204B0024C1F84041C1F84441C1F8484158
:100F5000C1F84C41C1F80041C1F804411B6833B3EA
:100F60001948D1F8045501681A686D1A25F07F45B3
:100F7000AA4227460DD8197CDE69AD1A144419B16E
:100F8000D3E905201F7490471EB133461A68AA4260
:100F9000F1D90E490E4A0B7812789A4208D00D49C1
:100FA0000D4A41F823404FF48013C2F80031F8BDD8
:100FB000531CDBB2022B08BF00230B70EFE700BF0E
:100FC00000100140B0070020AC070020A907002056
:100FD000A8070020A007002000E100E02DE9F04F65
:100FE000B34AB44913780978994285B000F08881F2
:100FF0000133DBB2022B08BF0023AF481370AF4AA6
:101000000568DFF8D08252F82310D8F800606B181A
:1010100023F07F430360002E00F0C18100200746CB
:10102000044684463346AE4613E0D868DD69C3F80B
:1010300000C0891A144438B10EEB040222F07F423A
:10104000C3E90120DF611F460120002D00F05F8110
:101050002B461A688A42E8D9002800F08B81C8F82C
:1010600000309946521A1A6001230093944B954E12
:10107000DFF864A243F0010301934D464FF0000BEB
:10108000002F31D0D7E901303C46FF698A4ADFF8AA
:101090004CC21268991A21F07F41614500F2DD804F
:1010A0000B18236000220121C4E90122E2612174AE
:1010B000002D00F0F3802A689A4280F0E8802946EB
:1010C00005E0D1F800E09E4580F0CF8072460846EA
:1010D000C9699C469B1A0029F3D12360E161C46170
:1010E0002C462546002FCDD170783378984247D0D2
:1010F0009C460CEB4C0CB27806EBCC0C591CCBB2DA
:101100009A429CF80420337004BF00233370022AF3
:10111000DCF8084024D0032A18D0012AE6D1227C2A
:10112000002AE3D1DCF80C306360DCF81000A0602A
:10113000DCF81410E1609AF800E0DCF81810A16106
:10114000BEF1000FA2D0626013469FE7002DCDD004
:1011500000232B74ED69002DFBD1C8F80050C3E7C4
:1011600055B1AC4200F0BC802A4601E0944239D02F
:101170001146D269002AF9D1002222749842B7D1CF
:10118000BBF1000F01D1A94541D0002D44D04A4AFE
:101190004D4B1468D3F804654C4FD5F800803A786D
:1011A000351B25F07F450335002A00F0B580464AFF
:1011B000A8452CBF4444641924F07F44C2F840453C
:1011C000D2F804359B1BA41B23F07F4324F07F44FB
:1011D0000333A34200F2B98000238AF8003005B03F
:1011E000BDE8F08F8C427DD0E0692268C86100289C
:1011F00058D0AC46036813440360AC4552D000227B
:1012000033787078227465464FF0010BB6E7009B87
:10121000002BE1D0002DBAD12B4E2D4A284C4FF493
:1012200000314FF480330127C2F880103C43C6F8E8
:1012300048334FF43C60C6F808337760A0471E4B34
:10124000B7604FF43C601D60A047204B1D70002329
:101250008AF8003005B0BDE8F08FD31A23F07F4341
:1012600083420BD2C31A23601CE77244A2EB0C0228
:101270000A602360E161C4612C4632E70023012249
:10128000C4E90033A360E36122743DB12A68C8F861
:101290000040D31A2B60E561254623E7C8F80040DB
:1012A00025461FE7002233787078227466E700BF76
:1012B000A8070020A9070020AC070020A0070020F5
:1012C000304E000090060020001001409D070020D5
:1012D00000E100E0B00700209C070020FEFF7F0037
:1012E00029462A46D5F81CC0C8F800C0BCF1000F3A
:1012F00042D0D0691268C86100287FF47BAF7CE7D8
:10130000DFF8B4800027D8F800900097AEE6A94631
:10131000C8F800500090A9E62349244A4FF48030D1
:10132000C3F844034FF00109C3F804034FF400303D
:10133000C1F8800142F001020860C3F800904FF448
:101340003C60904787F8009031E7184BD2F80415BD
:10135000C2F8401543F001034FF43C609847124B2C
:101360004FF40032C3F8002100238AF8003005B0A2
:10137000BDE8F08FB14675E6CDE902210C4A0D4873
:1013800001239360C0F800C08AF800304FF43C603D
:10139000019B9847DDE90221D8F800C0A9E70123A5
:1013A000B1463746009361E600E100E0304E0000B0
:1013B00000100140AC070020B00700202DE9F843E1
:1013C0001F4D204E204FDFF898804FF480334FF4AC
:1013D00000324FF001090024C6F8802047EA0907CF
:1013E000C5F848334FF43C60C5F80833C5F804909D
:1013F000B847C5F808904FF43C60C8F80040B847BB
:10140000124A134B13491C601470134B134A0C708F
:101410000B2114701C8099704FF48012C023C6F801
:10142000802186F814333260C5F8084586F81133F8
:10143000D5F80435C8F800302046BDE8F88300BF71
:101440000010014000E100E0304E00009D07002048
:10145000B0070020A807002090060020A907002060
:10146000AC070020074B9B783BB142B138B1036811
:10147000187C10B959745A617047082070470720CA
:10148000704700BF900600202DE9F041234EB3784D
:10149000002B37D00446002834D0214B90464A1FF9
:1014A0009A420D4631D8436963B3437C0020012B37
:1014B0000CBF0F460746FFF78DFC7378B078327883
:1014C000591CC9B2884208BF00218A4220D003EBD0
:1014D000430306EBC3030120124A18719C60D2F843
:1014E0000425DA60C3E904570020C3F8188071703E
:1014F000FFF778FC0C4B4FF48012C3F8002100205A
:10150000BDE8F0810820BDE8F0810720BDE8F0814A
:101510000020FFF767FC0420F2E700BF90060020E0
:10152000FAFFFF000010014000E100E0826842B1D4
:1015300010B5044643690168006998470023A36019
:1015400010BD70470EB400B582B0039921B104AB51
:1015500001AA019300F0ACF802B05DF804EB03B00F
:10156000704700BF2DE9F04F164683B0B142DDE968
:101570000C920F4605469A46C0F095800B464FF0F8
:101580000108B3FBF6F39E4208F10108F9D9D045F2
:1015900038BFD04612F00103019302D1B9F1000F18
:1015A0005ED1AA68012403E00AF1FF3A06FB04F4C5
:1015B000BAF1010FF8D8B7FBF4F39E42F6D9DFF881
:1015C000ECA007E0B442B4FBF6F31AD3AA681C46B9
:1015D000B7FBF3F31AF803B0BBF10A0F04FB137760
:1015E00028D02B68511CA96003F802B0D5E901325C
:1015F0009A42E7D32846FFF799FFB4FBF6F3B442CB
:10160000E4D2019B9BB1B9F1000F10D02024C84552
:1016100009F1FF390BD2AB682A68591CA960D45470
:10162000D5E901329A4214D2B9F1000FEFD103B0DB
:10163000BDE8F08F511C2B68A9604FF00D01995443
:10164000D5E901329A42CCD32846FFF76FFFAA684A
:10165000C7E72846FFF76AFFB9F1000FD7D1E6E7E1
:1016600093071AD42024AA68C84502F1010199D22F
:101670002B68A9609C54D5E901329A4209F1FF39DF
:1016800003D2B9F1000FEFD18CE72846FFF74EFFE8
:10169000AA68B9F1000FE7D184E7BAF1000F0CBFD7
:1016A00030242024DFE74FF0010870E7384E0000B7
:1016B000002900F054822DE9F04FDFF8B8950C783E
:1016C00085B0064690460D464FF00D0A10E00A2CF4
:1016D000B36800F0AD803268591CB160D454D6E9CB
:1016E00001329A4280F0A0802C78002C00F0878094
:1016F0000135002C00F08380252CE8D129460027F5
:101700000D4611F8012B2D2A00F08880302A00F0B8
:1017100088802B2A7AD02A2A00F09980A2F13003FF
:10172000092B4FF000040BD804EB840402EB4404B3
:1017300015F8012FA2F13003092BA4F13004F3D9DD
:101740002E2A00F09080002301E015F8012F02F00E
:10175000FB016829F9D0252A00F07781583AD1B2E7
:10176000202947D8202A45D8DFE812F03501440067
:101770004400440044004400440044004400440049
:101780004400430113014400440044004400130199
:10179000440044004400440044004400D20044009B
:1017A0004400A2004400940044004400350101209C
:1017B0009842024638BF1A460292002C40F05081EF
:1017C000B80740F16E81002B40F04E821C46BBF101
:1017D000000FC0F20A827A0700F11A8207F00302B2
:1017E000022A00F0EA81CDE9004759460A22304634
:1017F000FFF7B8FE01352C78002C7FF479AF337BEE
:10180000002B40F01C8105B0BDE8F08F0D4611F8AB
:10181000012B2D2A47F004077FF478AF47F001072A
:101820006EE747F002076BE73046FFF77FFE5BE7A6
:101830003268591CB16002F803A0D6E90123934233
:10184000FFF449AF3046FFF771FEB36843E7D8F8BD
:1018500000301A1DC8F800206A781C682E2A05F18D
:1018600001057FF470AF6A78A2F13003092B05F10E
:1018700001054FF000033FF66AAF03EB830302EB71
:10188000430315F8012FA2F130010929A3F1300318
:10189000F3D95CE7D8F80020111DC8F800101168D2
:1018A0003046CDE900470A22FFF75CFE0135A2E78A
:1018B000D8F800301A1DC8F8002017F00107D3F837
:1018C00000B040F0F080BBF1000F03D0584602F0AA
:1018D000AFFD0746BC4240F24381002C00F040813E
:1018E000202205E0BC4200F03B81002C00F0388152
:1018F000B1683368481CB0605A54D6E90130984248
:1019000004F1FF34EED33046FFF710FE2022E9E762
:10191000D8F80020131DC8F80030B3683168176884
:10192000581C3022B060CA54D6E90123934280F09B
:10193000EF803268581C7821B060D154D6E901326A
:101940009A4280F0E0800F2F03D93B461B090F2BF2
:10195000FCD84FF0805406E00F2C4FEA14137FF6AA
:1019600049AFB2681C46B7FBF4F319F803B0BBF1FA
:101970000A0F04FB137754D03368511CB16003F88D
:1019800002B0D6E901329A42E6D33046FFF7CEFDE7
:10199000E2E7D8F80020111DC8F80010D2F800B016
:1019A0008BEAEB72A2EBEB72092A7FF700AFDFF84C
:1019B000C8C2012011466329ACFB02E200F101001C
:1019C0004FEAD202F6DC9842024638BF1A4602922B
:1019D000002C45D1F4E6D8F80020111DC8F80010FD
:1019E00011683046CDE900471022FFF7BBFD0135F5
:1019F00001E7D8F800301A1DC8F800201C78B36839
:101A00000A2C00F011813268591CB160D454D6E917
:101A100001329A42FFF4EEAE3046FFF787FD013502
:101A2000E9E63368511CB16003F802A0D6E901323F
:101A30009A42A1D33046FFF779FDB2689CE7304661
:101A400005B0BDE8F04FFFF771BDB3683168581CB1
:101A5000B060CA54D6E901329A42DDD20135CAE6F5
:101A6000BBF1000F59DB7A0757D4B80702D5002B1A
:101A70003FF4ADAEF9073FF5AAAE94B1202202992A
:101A8000A142BFF4A4AEB168481CB06030684254B3
:101A9000D6E90101814204F1FF3480F0D480002CAA
:101AA000EDD1002493E69BF80030002B00F0E0809D
:101AB000B0685F46CBF101020A2B02EB070B3CD06A
:101AC000411CB16031680B54D6E90130984226D2EE
:101AD00017F8013F002BEFD15C457FF68BAE202736
:101AE00002E05C453FF486AEB2683368511CB160D9
:101AF0009F54D6E901329A4204F1FF34F1D33046C3
:101B0000FFF714FDEDE73046FFF710FDB2681AE766
:101B10003046FFF70BFDB3680BE7013CA5E7304605
:101B20000292FFF703FD17F8013F002BD4D0029A71
:101B3000B0680A2B02EB070BC2D1411CB1603168BF
:101B400001F800A0D6E901108842B9D33046CDE9AA
:101B50000232FFF7EBFCDDE90232B068B0E7704714
:101B60009BF80040002C3FF445AE0A2CB0680ED024
:101B70003368421CB2601C54D6E90130984214D23A
:101B80001BF8014F002C3FF435AE0A2CF0D133681E
:101B9000421CB26003F800A0D6E901309842E7D3B6
:101BA0003046FFF7C3FCB068E2E73046FFF7BEFC03
:101BB0001BF8014F002CD8D11CE6002B7FF413AE8C
:101BC0008CB130220299A142BFF40DAEB168481C1D
:101BD000B06030684254D6E90101814204F1FF341B
:101BE0003BD2002CEED10024FDE5B1684A1CB26066
:101BF00032682D205054D6E901219142CBF1000BDF
:101C0000FFF4ECAD30460393FFF790FC039BE5E552
:101C1000B1684A1CB26032682B205054D6E90121C9
:101C20009142FFF4DBADEDE73268591CB16002F878
:101C300003A0D6E901239342FFF4E5AE3046FFF757
:101C400075FCB368DFE630460393FFF76FFC039B38
:101C50002022002C7FF413AF23E730460393FFF7D5
:101C600065FC039B3022BCE7F9073FF5B0AD18E7F0
:101C70009B4631E7384E0000CDCCCCCC0278A2F1A7
:101C80003003D9B2092905D9A2F14103052B31D876
:101C9000A2F1370310B44278A2F13001CCB2092C82
:101CA0004FEA031324D9A2F14101052930D8373A6C
:101CB00013448278A2F13001CCB2092C4FEA03130D
:101CC0001FD80B44C278A2F13000C1B209294FEAF3
:101CD000031309D9A2F14101052928D9A2F1610113
:101CE000052920D8A2F1570018445DF8044B70472D
:101CF0000B44DEE7A2F16103052B21D8A2F15703C3
:101D0000C8E7A2F14101052909D8373A1344D9E7B8
:101D1000A2F16101052906D8573A1344C9E7A2F197
:101D20006101052909D900205DF8044B7047A2F133
:101D3000370018445DF8044B7047573A1344C1E725
:101D4000002070472DE9F0471378222B82B091468E
:101D500040F0A3805378222B06460F4602F101087B
:101D600008BF012014D04446002505E06378222BEB
:101D700004F101040BD00D46691C002B00F08B8090
:101D80005C2BF3D1A378222B04F10204F3D1A81C1D
:101D9000724B1B6898470446002800F0898099F828
:101DA0000130222B08BF02460ED0DFF8B891024660
:101DB00009254BB15C2B17D002F8013B08F1010853
:101DC00098F80030222BF4D10023137098F80030DB
:101DD0003C60222B4FF0040308BF08F10108336078
:101DE000404602B0BDE8F08798F80100A0F1620318
:101DF00008F10101132B0BD8DFE803F0470A0A0AA8
:101E0000410A0A0A0A0A0A0A3B0A0A0A350A301172
:101E100002F8010B98F8023001F10108D2E708F14D
:101E200002000192FFF72AFFA0F55C43B3F5806F33
:101E3000019A824608F1050137D3A0F55843A0B3B3
:101E4000B3F5806F36D298F806305C2BE4D198F861
:101E50000710752971D008F10608ABE702F8015B9D
:101E600098F80230D8E70D2302F8013B98F80230C9
:101E7000D2E70A2302F8013B98F80230CCE70C23A2
:101E800002F8013B98F80230C6E7082302F8013B4C
:101E900098F80230C0E708467AE7314B4FF0000867
:101EA00040461A6002B0BDE8F08798F80630B3E704
:101EB000804695E77F2808D801321046002343EA80
:101EC0000A0A00F801AC4B78A6E7B0F5006F0FD214
:101ED00002324FF0010EC0230AF03F0C6CF07F0C71
:101EE000501E02F801CC4FEA9A1A00EB0E02E6E708
:101EF000B0F5803F15D203324FF0020EE0230AF016
:101F00003F0060F07F0002F8010C4FEA9A1A013A94
:101F1000E2E709EA8A2AC0F309004AEA000000F56C
:101F2000803A0AF03F0363F07F03D3704FEA9A1AB6
:101F300003324FF0030EF023E1E708F108000192AD
:101F4000FFF79CFEA0F55C43B3F5806F019A08F1A2
:101F50000B01DED398F80C305EE700BF20000020B4
:101F6000B407002000FC0F00002965D02DE9F041E6
:101F70000F46054698490422384602F061FA20B916
:101F80000223381DEB60BDE8F081944905223846F4
:101F900002F056FA18B9E860781DBDE8F081904962
:101FA0000422384602F04CFA88B13A78222A4DD001
:101FB0002D2A46D0A2F13003092B1DD95B2A00F04F
:101FC00097807B2A08D0874B00201F60DBE7012326
:101FD000381DEB606B61D6E70623EB607B78013739
:101FE00023B93CE017F8013F002B38D0202BF9D95A
:101FF0007D2B34D1781CC6E70120302A08BF7A78BF
:10200000A2F1310208BF0137082A17D83978002316
:10201000A1F1300217F8011F03EB830302EB430326
:10202000A1F13002D1B20929F4D900FB03F33846FB
:1020300003226B61EA60A6E7002070473846002360
:10204000F6E77A784FF0FF300137D6E73A4605F1E8
:10205000100105F10C00BDE8F041FFF773BE624EC0
:102060002820336898470446002800F0FC80282286
:10207000002101F02DFEAC603B781BB904E017F89D
:10208000013F0BB1202BFAD904F110013A4604F1BB
:102090000C00FFF757FE014638B30278013A1F2AB9
:1020A00004D811F8012F013A1F2AFAD922692262B5
:1020B000002020610A783A2A40F0D2804A78013123
:1020C0001AB904E011F8012F0AB1202AFAD92046E2
:1020D000FFF74AFF48B1024601E0202B66D813788B
:1020E00017460132002BF8D16DE70020BDE8F081E2
:1020F0000523EB607B7801371BB907E017F8013F38
:1021000023B1202BFAD95D2B3FF474AF364E282033
:10211000336898470446002800F0A5802822002153
:1021200001F0D6FDAC603B781BB904E017F8013F25
:102130000BB1202BFAD939462046FFF715FF0028AE
:10214000D3D0034601E0202A08D81A781D4601336F
:10215000002AF8D1234B00201D6014E72C2A40F000
:102160008980336828209847274604460028BCD039
:102170000021282201F0ACFD3C6067606B78691C8F
:102180001BB904E011F8013F0BB1202BFAD920460E
:10219000FFF7EAFE0028A8D0034601E0202ADDD898
:1021A0001A781D460133002AF8D1D3E72C2B53D1DE
:1021B0000025336828209847A0460446002894D07C
:1021C0002822002101F084FDC8F80040C4F80480F2
:1021D0007B787A1C6BB90EE0484E0000504E000030
:1021E000584E0000B40700202000002012F8013FE4
:1021F0000BB1202BFAD904F1100104F10C00FFF708
:10220000A1FD014600283FF470AF0378013B1F2B6E
:1022100004D811F8013F013B1F2BFAD9236923622F
:1022200025610B783A2B21D14B7801311BB904E0A1
:1022300011F8013F0BB1202BFAD92046FFF794FE8D
:1022400010B952E7202B05D8037807460130002B40
:10225000F8D1B8E62C2BACD07D2B3FF4CBAEB2E658
:10226000074A11608FE60020A8608CE6044B00202E
:10227000196088E65D2A7FF46DAF681C83E600BFB5
:10228000B4070020014B1868704700BFB407002056
:10229000F8B170B50F4E044625462468EB68D905A1
:1022A0000BD4A86820B1FFF7F3FFEB68DA0504D47C
:1022B000286910B133689847EB689B0503D4286AF6
:1022C00008B133689847336828469847002CE3D113
:1022D00070BD70471C00002038B5144B04461B68C5
:1022E000282098470546C0B12822002101F0F0FCC3
:1022F0000F4B00221A6044B12378013B1F2B04D8F6
:1023000014F8013F013B1F2BFAD921462846FFF75D
:102310002BFE044620B1284638BD054B1860FAE76D
:102320002846FFF7B5FF2546F5E700BF200000204F
:10233000B4070020FEF7AABD2DE9F041058A03315C
:10234000043D4E198046B6FBF5F6FEF7BBFDA0B383
:10235000F6B24FF48073013E0446C580C0F8008099
:1023600083802BD00346002508E06279AE4202F15B
:10237000010262713860C0F800801FD040461F46DD
:10238000FEF7A0FD013503460028EED16779791EDE
:1023900017D02246013399421268FBD1D2F800804F
:1023A0005FB12668002501E03446366821460135D4
:1023B0004046FEF7ADFDAF42F6D800242046BDE80A
:1023C000F08120682146FEF7A3FDF6E704300121E5
:1023D000FEF720BD2DE9F041012104460430FEF74F
:1023E00027FD10F0FF0301D0BDE8F0816779791E69
:1023F00016D02246013399421268FBD1D2F80080F0
:10240000002FF1D02668002501E0344636682146C9
:1024100001354046FEF77CFDAF42F6D8BDE8F081BD
:1024200020682146BDE8F041FEF772BD2DE9F84372
:102430000546C6884079144606FB00F2043A04EBD0
:10244000030C1F1D624538BFD41ABE428846B7FB35
:10245000F6F106FB117002D801392D68FCD1371A4C
:10246000A74228BF27469CB14FF000090430E41B67
:1024700028443A4608EB090101F01CFCA642B94485
:102480002D6837464FF0000028BF2746002CEDD1BD
:10249000BDE8F8832DE9F8430546C688407914461F
:1024A00006FB00F2043A04EB030C1F1D624538BF23
:1024B000D41ABE428846B7FBF6F106FB117002D86B
:1024C00001392D68FCD1371AA74228BF27469CB195
:1024D0004FF0000904302918E41B3A4608EB0900C4
:1024E00001F0E8FBA642B9442D6837464FF00000E2
:1024F00028BF2746002CEDD1BDE8F8838268002371
:10250000936082681361826853618268D3608268D5
:10251000536082681360704730B585B004784568B1
:102520008DF80040D0E90240064A074B039053F86B
:102530002130019552F821108DF8084068469847DF
:1025400005B030BDB8070020BC07002030B585B00D
:10255000047845688DF80040D0E90240064A074BF0
:10256000039053F82130019552F821108DF808405E
:102570006846984705B030BDB8070020BC0700206A
:10258000F0B51A4B90F800C0194C1A4D91F81DE0A7
:1025900044F82C200746086945F82C0003F80CE0A5
:1025A0000C4616460FCC89B06D460FC594E80F0057
:1025B00085E80F00CDF810C0BEF1000F0AD0002E44
:1025C0000D4A694607F1040008BF324600F0DAFE02
:1025D00009B0F0BD002E094A694607F10C0008BF9A
:1025E000324600F07FFC09B0F0BD00BF680C00204F
:1025F000BC070020B8070020192500004D25000069
:1026000010B568B90E4CA368012262703BB1D3E9E2
:1026100000230020A2609847A368002BF7D110BDCB
:102620000128FCD1064C2369A070002BF7D0D3E918
:1026300000230120226198472369002BF7D110BDA8
:10264000C007002010B50B4C237882B013B1852051
:1026500002B010BD08486360A3602361E36000F02E
:102660003BF8019000F044F801980123237002B078
:1026700010BD00BFC00700200126000038B5154D71
:10268000AB78044673B110B143680120984700202D
:10269000FEF7A0FBEB680133EB600020BDE838409B
:1026A000FEF7A0BB03F0FF00FEF794FB64B12A69BC
:1026B00042B1944208D0134601E09C4204D01B680A
:1026C000002BFAD122602C61EB68002BE2D100F0E4
:1026D00021F8DFE7C0070020044A137923B901215C
:1026E000106091801846704785207047D4070020FD
:1026F000074B1A68D20704D4C021012283F80013C3
:102700001A604FF080430122C3F81825704700BFBC
:1027100000E100E010B41349134B144A0020086094
:1027200083B0096801914FF080410220019CC1F8FB
:102730000403D86840F08071D960146844F0010344
:102740001360516853685B1AB3F50A5FFAD3064900
:10275000074B14600122C8601A6003B05DF8044B97
:10276000704700BF04010040F0ED00E0001000E001
:102770000800004010B5174B1A6882B062B1002102
:10278000154A19601B68507900934FF0804101236E
:10279000009CC1F8083398B1104B1A68BAB10022F6
:1027A0001A601B6801934FF0804202210A4B019886
:1027B000C2F808131B68012002B0BDE8104018479A
:1027C000116853718847054B1A68002AE7D102B097
:1027D00010BD00BF00010040D407002004010040EC
:1027E0002DE9F041274F284EDFF8A08084B0002467
:1027F0004FF48035D7F804332B4211D056F82420FB
:102800000023E0B262B1C7F84853C7F8085346F84E
:10281000243056F824300393D8F80030039A9847B0
:102820000134032C4FEA4505E4D1164BD3F80423B9
:10283000D10702D5D3F80021C2B9124BD3F8042333
:10284000920710D5D3F804216AB10022C3F80421FD
:10285000D3F804210D4B0192019A1B68052004B0A6
:10286000BDE8F041184704B0BDE8F0810022C3F88C
:102870000021064AD3F80031029304201368029A1B
:102880009847DAE700B0004040B10040DC07002084
:102890004FF0A0410122D1F8043502FA00F020EAFD
:1028A00003020340C1F80825C1F80C35704700BF8A
:1028B0002DE9F04186B0B34A002301931168012944
:1028C00000F0B6801E46B04B1A68012A00F0C080A6
:1028D000AE4B1A68012A00F0CD80AD4B1A68012A70
:1028E00000F0DA80AB4B1A68012A00F0E780AA4BAF
:1028F0001A68012A00F0F480A84B1A68012A00F037
:102900000181A74B1A68012A00F00E81A54B1A68B5
:10291000012A00F02881002E38D0A34F0024012581
:10292000A30003F180432E4203F5C0434FEA45055F
:102930000BD0D3F8100557F82420D3F81015C0F3A6
:102940000420C1F3014102B190470134082CE7D1C2
:10295000002E1BDA00224FF0FF33CDE90223924C08
:10296000012502AE94F94430D9B203F03F0001339F
:102970000CD006AB03EBD00701F0070317F80C2CC3
:1029800005FA03F31A424FEAD00C02D106B0BDE8B3
:10299000F0812218890992F9242054F82280B8F194
:1029A000000F3DD003293DD0820002F1A04217F86C
:1029B00014CCD2F800771CEA030FC7F3014720D1EB
:1029C000032FE3D1032920D14FF40033D2F80017AD
:1029D00021F44031C2F80017D2F800170B43C2F8B7
:1029E0000037B8F1000F01D00321C0474FF0A043DA
:1029F000019AD3F810359A42C8D0029A01930392F3
:102A0000B0E7022FC2D1032907D0B8F1000FBDD023
:102A1000434606B0BDE8F04118474FF44033D5E7D0
:102A20000329B3D116F80C201A4306F80C20BBE793
:102A30005E49D1F8046316F001063FF444AF136019
:102A400013680493049B504B1A68012A7FF440AF2B
:102A5000564AD2F8042392077FF53AAF00221A6053
:102A60001B680493049B494B1A68012A46F002062E
:102A70007FF433AF4D4AD2F8042357077FF52DAFCB
:102A800000221A601B680493049B414B1A68012AB8
:102A900046F004067FF426AF444AD2F80423150713
:102AA0007FF520AF00221A601B680493049B394B0A
:102AB0001A68012A46F008067FF419AF3B4AD2F89B
:102AC0000423D4067FF513AF00221A601B68049319
:102AD000049B314B1A68012A46F010067FF40CAFB4
:102AE000324AD2F8042390067FF506AF00221A601E
:102AF0001B680493049B294B1A68012A46F02006A0
:102B00007FF4FFAE294AD2F8042351067FF5F9AECF
:102B100000221A601B680493049B214B1A68012A47
:102B200046F040067FF4F2AE204AD2F804231206A3
:102B30007FF5ECAE00221A6019680491196E0498B2
:102B4000012903F1600346F080067FF4E6AE1A60C7
:102B50001B6805934FF0A043059AD3F810350193F5
:102B600046F00046D9E600221A601B6805934FF034
:102B7000A043059AD3F810350193002E3FF4EAAE36
:102B8000EEE700BF006100400461004008610040C2
:102B90000C61004010610040146100401861004069
:102BA0001C6100407C610040E007002000600040A4
:102BB000036801221A6070472DE9F041114CDFF8DB
:102BC0004C80114E82B000254FF48037236807FAFD
:102BD00005F101357BB1D8F80423A4F5004011427A
:102BE0004FF0000380B206D0236023680193D6E93A
:102BF0000031019A9847042D04F10404E6D102B093
:102C0000BDE8F081408100402C0800200080004099
:102C10002DE9F041114CDFF84C80114E82B00025B7
:102C20004FF48037236807FA05F101357BB1D8F8F6
:102C3000042304F5E04011424FF0000380B206D0B7
:102C4000236023680193D6E90331019A9847042D44
:102C500004F10404E6D102B0BDE8F08140910040E7
:102C60002C080020009000402DE9F041114CDFF8C5
:102C70004C80114E82B000254FF48037236807FA4C
:102C800005F101357BB1D8F8042304F5C0401142A9
:102C90004FF0000380B206D0236023680193D6E989
:102CA0000631019A9847042D04F10404E6D102B0DC
:102CB000BDE8F08140A100402C08002000A00040A9
:102CC000014B1B68184700BF5008002038B50C4B5B
:102CD000984213D100200D46FEF77CF8094B1C7971
:102CE00024B10020FEF77EF8112038BD01222046D5
:102CF0001D601A71FEF776F8204638BD002038BDF9
:102D00000020004050080020034B984203D1034BA1
:102D100000221A601A7170470020004050080020FD
:102D200030B56E4AD2F8043399058BB068D5D2F825
:102D30002431002B64D00023C2F82431D2F824318E
:102D400001934FF40171664B0198C2F8081393F890
:102D5000291009B901215160604902228DF818201B
:102D6000D1F88024C1F880249869D9680992002498
:102D70000025CDE90710C3E90645D3E9001206A8EE
:102D80009047564AD2F81C31C3B1554B5869196A5D
:102D900088426AD993F8281001F0FF00002964D115
:102DA000C2F81C01D2F81C11039103999C68186A9F
:102DB000196A205C01311962C2F81C05474AD2F831
:102DC0004431DBB10021464BC2F84411D2F8440132
:102DD00093F829100090009809B1012111609A69B7
:102DE00062B1586AD96800229A610122CDE90710C0
:102DF0008DF8182006A8D3E9001290470BB030BD1B
:102E0000364AD2F804335B07BBD5D2F80831002B21
:102E1000B7D0334B996900293ED00021C2F8081180
:102E2000D2F8081104910499D868596AD2F8182583
:102E300042545A6A996901325A625A6A8A42A0D146
:102E4000DA69002A31D0DD685C6A18699A6101216B
:102E50000022D860DA615A628DF81810CDE9075463
:102E6000D3E9001206A890478BE71C4A0021C2F85C
:102E70001C11D2F81C210292029A5A69002A9DD094
:102E800058699A688DF8181008905961079206A839
:102E9000D3E90012904791E7C2F80811D2F808016F
:102EA00005900598D2F81825C7E793F8292012B99C
:102EB0000A4A01215160094A4FF40171C2F808130E
:102EC000596ADA6808910024012007928DF81800E9
:102ED000D3E900129C6106A8904752E70020004009
:102EE000580800202DE9F041604F06792C2303FBA0
:102EF000067382B093F82A30002B40F08980054693
:102F00000C4600685A499046FFF7E0FE00287BD146
:102F10002368591C0CD001224FF0A04102FA03F3A0
:102F2000C1F80835236803F5E073032241F8232034
:102F300063685A1C06D003F5E0734FF0A0420021ED
:102F400042F823102B68A269C3F82425217D637DF4
:102F50002A680B43C2F86C35D4E900122B68C3F819
:102F60001425C3F80C15237D012B5DD02C2303FB06
:102F700006F3FA18C2F804802269FA50B8F1000F7B
:102F80002FD02A68237F3B4C0021C2F81C11D2F8B5
:102F90001C2100922A68DDF800C0C2F84411D2F862
:102FA00044112A6801910199C2F804432A6842F346
:102FB000073100294FEA12322EDB01F1604101F5A1
:102FC00061415B01DBB281F800332B682A4C43F38B
:102FD00007325209C3F30433012101FA03F344F821
:102FE00022302C23296803FB0676042400230122C7
:102FF000C1F80045C6E9063386F82A2086F829304C
:10300000736102B0BDE8F081112002B0BDE8F0812B
:10301000082002B0BDE8F081184902F00F025B0100
:103020001144DBB20B76D0E7A368591C06D003F538
:10303000E0734FF0A042002142F82310E3685A1CCD
:103040000DD001224FF0A04102FA03F3C1F8083578
:10305000E36803F5E073032241F82320E3682A685C
:10306000A168C2F80835C2F810157FE7580800209B
:10307000212D00008000020000E100E0FCEC00E0F7
:10308000F8B52F4D047902682C2303FB045300216B
:103090005B68C2F8001583B103682A4AC3F80823A5
:1030A0000268294E42F307335B092033C2F304322E
:1030B000012101FA02F246F8232003684FF0FF32A3
:1030C000D3F80CC5D3F81475D3F80815D3F81065E8
:1030D000C3F81425C3F80C2503689445C3F80825E4
:1030E000C3F8102506D00CF5E07C4FF0A043022277
:1030F00043F82C207B1C06D007F5E0774FF0A04367
:10310000022243F82720721C06D006F5E0764FF025
:10311000A043022243F826204B1C06D001F5E071A3
:103120004FF0A043022243F821200068FFF7ECFD96
:103130002C2303FB0454002384F82A306360F8BD79
:10314000580800208402020000E100E02DE9F0416F
:10315000314E05792C2303FB05630446586984B07E
:1031600000284CD15A619960186283F828002268BF
:10317000C2F81C01D2F81C11226802910121029FA1
:1031800091602268D3F808C0C2F81C01D2F81C1163
:10319000019101991F6A196A1CF8077001311962BF
:1031A000C2F81C755A6812B104B0BDE8F0815F69BD
:1031B0001A6A216897421BD9864602E093F82820B4
:1031C0000ABBD1F81C21002AF8D0C1F81CE1D1F8C3
:1031D0001C210392039AD3F820801A6A1CF80880F5
:1031E00001321A62C1F81C851A6A9742E9D821682F
:1031F000D1F81C31002BFBD00123CB6004E011205F
:1032000004B0BDE8F0810F202C2303FB05650023EB
:103210006B6104B0BDE8F0815808002030B5574B11
:10322000D3F824218BB0002A75D00022C3F82421C2
:10323000D3F82421049202228DF81820049AD3F89E
:1032400080144F4AC3F880140991D3F83C15D36811
:103250000891002400250793C2E9064511685368C8
:1032600006A89847454BD3F8442152B10021444A5F
:10327000C3F84411D3F844019169039003980029DD
:1032800038D13E4BD3F820215AB10021C3F8201188
:10329000D3F8202102920120394A029CD86050695B
:1032A000D8B9364BD3F85821AAB10021C3F8581128
:1032B000D3F85801324A01900198506958B1D3F8B7
:1032C0004C05936808908DF818105161079306A873
:1032D000D2E9001398470BB030BDD3F84C05936882
:1032E00008908DF818105161079306A8D2E90013D1
:1032F0009847D6E7D3F83C35D168089300240025D9
:10330000012307918DF81830C2E90645D2E9001370
:1033100006A89847B5E7D3F810110029A2D0C3F842
:103320001021D3F810111648059105998469D3F836
:103330003C15A14296D1C469A4B1D3F8005284616E
:1033400025F02005C3F80052D0E90343C2610122F1
:103350000891C3600168436807948DF8182006A897
:1033600098477FE7C26884610123CDE907218DF882
:103370001830D0E9001306A8984773E700200040F2
:10338000880800202DE9F04307796E4E07EBC7034C
:1033900006EB830387B093F82030002B40F0A38026
:1033A00004460D46006868499146FFF78FFC0028E7
:1033B00040F095802B68591C4FEAC7080CD00122B9
:1033C0004FF0A04102FA03F3C1F808352B6803F56A
:1033D000E073032241F823206B685A1C06D003F5E2
:1033E000E0734FF0A042002142F823102368A9693E
:1033F000C3F82415297D6A7D23680A43C3F86C2528
:10340000D5E900312268C2F80C35C2F814152B7DBD
:10341000012B74D008EB070206EB8203C3F804907B
:103420002B6946F82230B9F1000F47D021682B7F75
:10343000464D0022C1F81021D1F8101101912168E8
:10344000DDF804C0C1F82021D1F8201102912168D3
:10345000DDF808C0C1F82421D1F8241103912168B6
:10346000DDF80CC0C1F84421D1F844110491216861
:10347000DDF810C0C1F85821D1F858112268059123
:103480000599C2F80453226842F3073100294FEA34
:1034900012322CDB01F1604101F561415B01DBB2CD
:1034A00081F8003323682A4D43F307325209C3F3EE
:1034B0000433012101FA03F345F82230474422681E
:1034C00006EB8706002301240821C2F80015C6E98F
:1034D000063386F82040736107B0BDE8F083112001
:1034E00007B0BDE8F083082007B0BDE8F0831949B4
:1034F00002F00F025B011144DBB20B76D2E7AB683E
:10350000591C06D003F5E0734FF0A042002142F8A9
:103510002310EB685A1C0DD001224FF0A04102FA93
:1035200003F3C1F80835EB6803F5E073032241F8B3
:103530002320EB682268A968C2F80835C2F8101584
:1035400068E700BF880800201D3200001003420019
:1035500000E100E0FCEC00E0F0B505793D4C05EB46
:10356000C50304EB830383B05B68EE0083B103689B
:10357000394AC3F808230268384F42F307335B091E
:103580002033C2F30432012101FA02F247F823206A
:103590000268D2F8003223F02003C2F80032026839
:1035A0000123536002680021C2F85811D2F8581163
:1035B000026801910199D3600268D2F85831002B5A
:1035C000FBD00023C2F8003503684FF0FF32D3F878
:1035D0000CE5D3F814C5D3F80815D3F81075C3F863
:1035E0000C25C3F8142503689645C3F80825C3F8CD
:1035F000102506D00EF5E07E4FF0A043022243F8DE
:103600002E20BCF1FF3F06D00CF5E07C4FF0A0432C
:10361000022243F82C207A1C06D007F5E0774FF001
:10362000A043022243F827204B1C06D001F5E0718D
:103630004FF0A043022243F821200068FFF764FB0B
:10364000354404EB8504002384F82030636003B024
:10365000F0BD00BF880800201003420000E100E038
:10366000F0B401F06044B4F1005F82B02CD1057970
:10367000274E05EBC50406EB840403466069EF00A2
:1036800000283ED16261A1601A68C2F82001D2F818
:1036900020C11A68CDF804C0DDF804C0C2F8580192
:1036A000D2F8582100921A68DDF800C0D4F814C08E
:1036B000C2F84415C2F848C51A68012191606268D1
:1036C00032B102B0F0BC7047102002B0F0BC7047BD
:1036D0001A6800E0C8B9D2F82011D2F858010029C0
:1036E000F8D090B90121D1601B68D3F85821002A85
:1036F000FBD07B1906EB830300225A6102B0F0BCB9
:103700007047112002B0F0BC70470F20F1E700BFF6
:103710008808002010B5084C1320FFF7B9F823786B
:10372000022B00D010BD0548FFF742FA1120FFF729
:10373000AFF80323237010BDCC0800201C4F0000FD
:103740002DE9F0474FF400410020FCF701FF00286D
:103750005AD1FCF7EDFE0120FDF7D0FAFEF772FF1B
:1037600000285AD10020FEF789FFFDF727FE2C4ADA
:103770002C480121FDF776FE00284BD12A48002273
:103780004FF4A021FDF780FE002840D1274B284FA1
:10379000284E2949294DDFF8A8A0DFF8A880DFF8D6
:1037A000A890FF1AFF083F0447F003073846FDF7CB
:1037B0005FF83046FEF790FD45F001050446B8B1CC
:1037C00041463846FDF754F82046FEF761FDFCF708
:1037D00019FF0028FBD14FF4FA644FF47A40A84750
:1037E000013CFAD13046FEF777FD04460028E7D1C8
:1037F000FEF748FD02460028E6D0DAF800304946D8
:10380000D86800F011FADFE7FDF79CFAA1E7FDF7B1
:1038100099FABBE7FDF796FAB0E7FDF793FAA1E74F
:1038200015370000184F0000AC080020EC500000D5
:103830002C510000D84E0000B84E0000104F000080
:1038400028000020F84E0000E44E000030B4B84BD1
:103850001B78062B20D0B74B1B68062B00F081800D
:10386000B54AD2F8883043F47003C2F88830BFF309
:103870004F8FBFF36F8F4FF01023D3F80022002A31
:10388000C0F28681D3F80432002BC0F28181AB4BA9
:10389000AB4A1A6030BC7047AA4B1B681D07DAD1CF
:1038A000A94B1B6803F0F002302A00F09B8003F064
:1038B000E003402B00F09680A34B1B6803F0F0035D
:1038C000302B00F0A080A04B1B6803F0F002302AE0
:1038D00077D003F0E003402B73D09B4B1B6803F0C1
:1038E000F003302B00F01481974B1B6803F0F002BB
:1038F000302A52D003F0E003402B4ED0924B1B688D
:1039000003F0F003302B00F0F5808F4B1B6803F0C1
:10391000F003302B00F0D7808B4B1B6803F0F003D3
:10392000502B7ED0884B1B6803F0F002302A23D046
:1039300003F0E003402B1FD0834B1B6803F0F00221
:10394000302A03D003F0E003402B84D14FF08043B2
:10395000D3F80024D20744BF6FF00102C3F800245B
:1039600079E77A4B1B68062B7FF47AAF784A1368A5
:1039700043F48063136073E7764B6D4A1B681278DB
:10398000754903F04F03062A0B607FF464AF6D4B5B
:103990001B6819077FF45FAFCEE7654A11784FF0D7
:1039A000804300220629C3F80C21C3F81021C3F874
:1039B00038257FF450AF634B1B681B077FF44BAF78
:1039C0009CE7664B5A4A1B6812786549C3F3423339
:1039D000062A0B607FF43FAF5A4B1B6819077FF430
:1039E0003AAF7AE75F4B524A1B6812785E49C3F3DD
:1039F0000423062A0B607FF42EAF524B1B681C0772
:103A00007FF429AF58E74A4B584A1B785849116050
:103A1000062B7FF420AF4B4B1B6818077FF41BAFBE
:103A200051E74FF08052534BD2F80414C3F82015DD
:103A3000D2F80814C3F82415D2F80C14C3F82815CA
:103A4000D2F81014C3F82C15D2F81414C3F830159A
:103A5000D2F81814C3F83415D2F81C14C3F8401562
:103A6000D2F82014C3F84415D2F82414C3F848152A
:103A7000D2F82814C3F84C15D2F82C14C3F85015FA
:103A8000D2F83014C3F85415D2F83414C3F86015C2
:103A9000D2F83814C3F86415D2F83C14C3F868158A
:103AA000D2F840142248C3F86C15D2F844140278B6
:103AB000C3F87015062A7FF4CEAE224B1B68180798
:103AC0007FF4C9AE2EE71A4B2B4C1B782B492C48A0
:103AD0002C4A0525256001250D6000243F21062B79
:103AE000046011607FF4B7AE164B1B681C077FF4AF
:103AF000B2AE11E70E4B244A1B780321062B11604E
:103B00007FF4A9AE0F4B1B681D077FF4A4AEFCE643
:103B10001E4A0749D368097823F080730629D360C9
:103B20007FF499AE074B1B681A077FF494AEDBE66F
:103B3000E00F00F03001001000ED00E02400002054
:103B40000090D003E40F00F0E80F00F03401001003
:103B50003C17004058020010E40E004044020010E0
:103B60003C050040240300104035014074C007406C
:103B70000DF0ADBA00C0004010560040885600401D
:103B80001856004014560040A0050040F0ED00E03B
:103B9000184A0123C2F80435D2F80034002BFBD0B8
:103BA0004FF010231521134AC3F80012D2F8003445
:103BB000002BFBD04FF0102315210E4AC3F804123E
:103BC000D2F80034002BFBD000230A49C2F8043598
:103BD000D1F80034002BFBD0BFF34F8F0649074BC1
:103BE000CA6802F4E0621343CB60BFF34F8F00BF9B
:103BF000FDE700BF00E0014000ED00E00400FA0531
:103C000008B5074B044613B10021AFF30080054B04
:103C10001868836A03B19847204601F047F800BF4F
:103C200000000000285000000EB403B5014603ABAD
:103C3000054853F8042B0068019300F025F902B001
:103C40005DF804EB03B070472800002070B50D4DFF
:103C50000D4C641BA4100026A64209D10B4D0C4C40
:103C600001F026F8641BA4100026A64205D170BD01
:103C700055F8043B98470136EEE755F8043B984762
:103C80000136F2E78C0000208C0000208C00002020
:103C900090000020024B0146186800F071B800BF88
:103CA00028000020024B0146186800F019B800BF38
:103CB000280000200A44914200F1FF3300D17047F0
:103CC00010B511F8014B03F8014F9142F9D110BD25
:103CD00002440346934200D1704703F8011BF9E701
:103CE00037B5002948D051F8043C0190002BA1F1D0
:103CF0000404B8BFE41800F0E3FE204A01981368FA
:103D0000154633B96360146003B0BDE8304000F07D
:103D1000DDBEA3420BD921686218934204BF1A6822
:103D20005B68636004BF521822602C60ECE71A469F
:103D30005B680BB1A342FAD911685518A5420BD1A3
:103D4000246821445418A3421160DDD11C685B68CB
:103D5000536021441160D7E702D90C230360D3E7F5
:103D6000256861198B4204BF19685B68636004BFF2
:103D7000491921605460C7E703B030BD5C0C0020D6
:103D8000F8B5CD1C25F0030508350C2D38BF0C25E2
:103D9000002D064601DBA94203D90C233360002025
:103DA000F8BD00F08DFE21490A6814469CB9204FE9
:103DB0003B6823B92146304600F02AFB386029468B
:103DC000304600F025FB431C23D10C2333603046E2
:103DD00000F07CFEE3E723685B1B17D40B2B03D9B1
:103DE00023601C44256004E06368A2420CBF0B60A2
:103DF0005360304600F06AFE04F10B00231D20F0F2
:103E00000700C21ACCD01B1AA350C9E72246646827
:103E1000CCE7C41C24F00304A042E3D0211A3046AE
:103E200000F0F6FA0130DDD1CFE700BF5C0C0020D6
:103E3000600C00209368013B002B10B4936008DAFB
:103E40009469A34201DB0A2903D15DF8044B00F019
:103E500009BB1368581C1060197008465DF8044BC4
:103E60007047F8B506460F461446D518AC4201D146
:103E7000002007E014F8011B3A463046FFF7DAFF4E
:103E8000431CF3D1F8BD00002DE9F04F0D469DB065
:103E900014469846064618B183690BB900F0BCFC7D
:103EA000894B9D421BD175686B6ED90705D4AB89D0
:103EB0009A0502D4A86D00F04DFDAB891B0701D512
:103EC0002B69EBB92946304600F01EFBC0B16B6E82
:103ED000DC070ED54FF0FF301DB0BDE8F08F7B4BF7
:103EE0009D4201D1B568DFE7794B9D4208BFF56877
:103EF000DAE7AB899805EDD4A86D00F02CFDE9E771
:103F00000023099320238DF82930CDF80C8030232D
:103F1000DFF8C0818DF82A304FF0010923469A4618
:103F200013F8012B0AB1252AF9D1BAEB040B0BD0F7
:103F30005B46224629463046FFF793FF013000F0EA
:103F4000AA80099A5A4409929AF80030002B00F08E
:103F5000A28000234FF0FF32CDE905230AF1010AC8
:103F6000049307938DF853301A935446052214F89E
:103F7000011B584800F054FD049AD8B9D10644BF3B
:103F800020238DF85330130744BF2B238DF8533073
:103F90009AF800302A2B15D0079A544600204FF08B
:103FA0000A0C214611F8013B303B092B4ED9B0B128
:103FB000079214E0A0EB080309FA03F313430493F8
:103FC000A246D2E7039B191D1B680391002BBBBFC0
:103FD0005B4242F0020207930793B8BF0492237832
:103FE0002E2B0CD163782A2B35D1039B1A1D1B680D
:103FF0000392002BB8BF4FF0FF3302340593DFF874
:10400000E4A021780322504600F00AFD40B140238D
:10401000A0EB0A0003FA00F0049B0343013404936D
:1040200014F8011B2C488DF82810062200F0F8FC2B
:1040300000283FD0294B1BBB039B073323F007030A
:1040400008330393099B3B44099367E70CFB023257
:104050000C460120A5E700230134059319464FF0D3
:104060000A0C204610F8012B303A092A03D9002BFC
:10407000C5D00591C3E70CFB012104460123F0E7FD
:1040800003AB00932A46164B04A93046AFF30080D9
:104090000746781CD6D16B6ED90705D4AB899A0533
:1040A00002D4A86D00F057FCAB895B063FF512AF58
:1040B000099811E703AB00932A46094B04A930463F
:1040C00000F080F8E4E700BF80500000A05000003E
:1040D000605000002C50000036500000000000002E
:1040E000633E0000325000002DE9F0471646994625
:1040F0008A680B69DDF820809342B8BF13463360AD
:1041000091F8432007460C460AB101333360236817
:10411000990642BF336802333360256815F00605FF
:1041200006D104F1190AE36832689B1AAB4226DC17
:1041300094F84320131E226818BF012392062BD443
:1041400004F1430249463846C04701301ED0236877
:10415000E568326803F00603042B08BFAD1AA368B4
:1041600022690CBF25EAE57500259342C4BF9B1A5E
:10417000ED1800261A34B5421AD1002008E00123B8
:10418000524649463846C047013003D14FF0FF3010
:10419000BDE8F0870135C6E7E1185A1C302081F8E8
:1041A0004300224494F8451082F843100233C7E7D5
:1041B0000123224649463846C0470130E6D0013641
:1041C000D9E700002DE9FF470C469146277E0C9960
:1041D000782F80469A4604F1430207D8622F0AD806
:1041E000002F00F0D880582F00F0A38004F1420681
:1041F00084F842703AE0A7F16303152BF6D801A0CA
:1042000050F823F05D42000071420000ED410000D3
:10421000ED410000ED410000ED4100007142000061
:10422000ED410000ED410000ED410000ED410000D6
:104230007D430000A14200005F430000ED4100000B
:10424000ED4100009F430000ED410000A14200004D
:10425000ED410000ED410000674300000B681A1DAE
:104260001B680A6004F1420684F842300123A3E08F
:10427000256808682E0600F104030AD505680B605E
:10428000002D03DA2D236D4284F843305E480A2363
:1042900019E015F0400F05680B6018BF2DB2EFE76D
:1042A0000B682568181D0860280601D51D6802E006
:1042B0006906FBD51D8854486F2F0CBF08230A23BD
:1042C000002184F843106668A660002EA2BF216812
:1042D00021F0040121600DB9002E4DD01646B5FB2A
:1042E000F3F103FB1157C75D06F8017D2F46BB4272
:1042F0000D46F4D9082B0BD12368DF0708D52369B5
:1043000061689942DEBF302306F8013C06F1FF36B2
:10431000921B2261CDF800A04B4603AA21464046DD
:10432000FFF7E2FE01304CD14FF0FF3004B0BDE8A2
:10433000F087354884F8457023680E681F0656F8E4
:10434000045B0E6014D5D90744BF43F020032360FB
:104350001DB9236823F0200323601023B0E72368EE
:1043600043F0200323607823284884F84530E3E7AE
:104370005E0648BFADB2E6E71646BBE70B682668A7
:1043800060691D1D0D6035061B6801D5186002E0CF
:104390007106FBD51880002323611646BAE70B6827
:1043A0001A1D0A601E6862680021304600F038FB62
:1043B00008B1801B606063682361002384F8433088
:1043C000A8E72369324649464046D0470130ABD082
:1043D00023689B0713D4E068039B9842B8BF184634
:1043E000A4E70123324649464046D04701309BD0DE
:1043F0000135E36803995B1AAB42F2DCEBE7002579
:1044000004F11906F5E700BF3D5000004E500000D2
:1044100038B5064D0023044608462B6000F030FCFA
:10442000431C02D12B6803B1236038BD740C0020FB
:10443000034613F8012B002AFBD1181A01387047E4
:1044400010B56AB10139841810F8013B11F8012F39
:10445000934203D1A04201D0002BF5D1981A10BD90
:104460001046FCE7F8B50E461446054618B18369B8
:104470000BB900F0D1F9214B9C422BD16C68A36998
:10448000A360A3891A072FD523696BB3236920681A
:10449000C01A6369F6B28342374604DC21462846D7
:1044A00000F026F930BBA368013BA36023685A1CC7
:1044B00022601E7063690130834204D0A389DB0748
:1044C00006D50A2E04D12146284600F011F988B9F4
:1044D0003846F8BD0A4B9C4201D1AC68CFE7094B86
:1044E0009C4208BFEC68CAE72146284600F00CF859
:1044F0000028CBD04FF0FF37EAE700BF8050000024
:10450000A050000060500000324B70B51D68064698
:104510000C4625B1AB6913B9284600F07DF92E4B46
:104520009C420FD16C68A389B4F90C2019072CD4D4
:10453000DD0611D40923336042F04003A3814FF01C
:10454000FF303EE0254B9C4201D1AC68EBE7244BA9
:104550009C4208BFEC68E6E7580712D5616B41B191
:1045600004F14403994202D03046FFF7B9FB00231F
:104570006363A38923F02403A38100236360236979
:104580002360A38943F00803A38123694BB9A3895E
:1045900003F42073B3F5007F03D02146304600F0CA
:1045A000FFF9A089B4F90C2010F001030AD0002310
:1045B000A36063695B42A361236943B910F0800083
:1045C000BAD170BD810758BF6369A360F4E70020CA
:1045D000F7E700BF2800002080500000A050000036
:1045E000605000008A892DE9F041054610070C460D
:1045F00058D44B68002B05DC0B6C002B02DC002030
:10460000BDE8F081E66A002EF9D0002312F4805252
:104610002F682B6032D0606DA3895A0705D5636877
:10462000C01A636B0BB1236CC01A00230246E66A02
:10463000216A2846B047431CA38906D129681D2951
:104640002CD82A4ACA40D60728D500226260D9044D
:104650002269226004D5421C01D12B6803B9606530
:10466000616B2F600029CAD004F14403994202D043
:104670002846FFF735FB00206063C1E7216A01236C
:104680002846B047411CC7D12B68002BC4D01D2B36
:1046900001D0162B01D12F60B1E7A38943F040036D
:1046A000A381ADE70F69002FA9D093070E6808BF5B
:1046B0004B690F6018BF0023A6EB07088B60B8F1A9
:1046C000000F9CDD216AA66A43463A462846B04759
:1046D000002806DCA38943F04003A3814FF0FF309C
:1046E0008EE70744A8EB0008E9E700BF010040207F
:1046F00038B50B6905460C4613B90025284638BD68
:1047000018B183690BB900F087F8144B9C421BD198
:104710006C68B4F90C30002BEFD0626ED00704D473
:10472000990502D4A06D00F015F928462146FFF73F
:1047300059FF636EDA070546E0D4A3899B05DDD4F3
:10474000A06D00F008F9D9E7054B9C4201D1AC6897
:10475000DFE7044B9C4208BFEC68DAE780500000BA
:10476000A050000060500000002310B50446C0E9CE
:104770000033C0E90433836081814366C281836171
:10478000194608225C30FFF7A3FA054B6362054B1C
:10479000A362054BE362054B2462236310BD00BF97
:1047A000D94A0000FB4A0000334B0000574B000081
:1047B000014900F0AFB800BFF146000070B54A1ED5
:1047C000682555430E4605F17401FFF7D9FA0446F2
:1047D00040B10021C0E900160C30A06005F168026C
:1047E000FFF776FA204670BD014800F0B3B800BF6D
:1047F000710C0020014800F0AEB800BF710C002021
:10480000014800F0A7B800BF6C0C0020014800F080
:10481000A2B800BF6C0C002010B50446FFF7F0FFF3
:10482000A3691BB1BDE81040FFF7F0BFC4E9123324
:104830002365134B134A1B68A262A34204BF0123E2
:10484000A361204600F020F86060204600F01CF8CC
:10485000A060204600F018F80022E06004216068A3
:10486000FFF782FFA06801220921FFF77DFFE068C2
:1048700002221221FFF778FF0123A361D2E700BFD4
:1048800028500000B1470000F8B50746FFF7ACFF1D
:104890001E4B1E68B36913B93046FFF7BDFF48369B
:1048A000D6E90134013B03D533680BB33668F7E72B
:1048B000B4F90C50D5B9164BE36004F158006566A5
:1048C00000F047F8FFF796FFC4E90155C4E9045525
:1048D0002560A5610822294604F15C00FFF7F8F97C
:1048E000C4E90D55C4E912552046F8BD6834D9E72E
:1048F00004213846FFF762FF044630600028D5D116
:10490000FFF778FF0C233B60EEE700BF2850000064
:104910000100FFFF2DE9F8430646884600F14804F0
:104920000027D4E90195B9F1010905D52468002CC7
:10493000F7D13846BDE8F883AB89012B07D9B5F923
:104940000E30013303D029463046C047074368354F
:10495000E9E770477047704770B50E46B1F90E1021
:10496000002996B014461D4607DA00232B60B38950
:104970001A0610D44FF480630EE06A4600F012F974
:104980000028F2DB019A02F47042A2F500535A4269
:104990005A412A60EEE740230020236016B070BD24
:1049A0008B8973B59D0706460C4607D504F147036E
:1049B000236023610123636102B070BD01AB6A46CD
:1049C000FFF7CAFF009905463046FFF7D9F948B905
:1049D000B4F90C309A05EFD423F0030343F002033B
:1049E000A381E3E70D4BB362A389206043F080030A
:1049F000A381009B6361019B20615BB1B4F90E1040
:104A0000304600F0E1F828B1A38923F0030343F016
:104A10000103A381A0890543A581CDE7B14700002B
:104A200001F0FF01102A2BDB10F0070F08D010F85F
:104A3000013B013A8B422DD010F0070F42B3F6D163
:104A4000F0B441EA012141EA014122F007047FF07C
:104A500000070023F0E80256083C85EA010586EAD3
:104A6000010685FA47F5A3FA87F586FA47F6A5FA0F
:104A700087F68EB9EED1F0BC01F0FF0102F007021B
:104A800032B110F8013B013A83EA010313B1F8D1C6
:104A90000020704701387047002D06BF35460338A7
:104AA000073815F0010F07D1013015F4807F02BFE0
:104AB000013015F4C03F0130F0BC0138704700BF31
:104AC0000148FFF747BF00BF6D0C00200148FFF70A
:104AD00042BF00BF6D0C002010B50C46B1F90E109E
:104AE00000F094F80028ABBF636DA3891B1823F472
:104AF0008053ACBF6365A38110BD2DE9F0411F4613
:104B00008B89DB0505460C46164605D5B1F90E1016
:104B10000223002200F068F8A389B4F90E1023F4F0
:104B20008053A38132463B462846BDE8F04100F061
:104B300017B810B50C46B1F90E1000F055F8431C2B
:104B4000A38915BF606523F4805343F48053A38188
:104B500018BFA38110BDB1F90E1000F013B800000A
:104B600038B5074D04460846114600222A601A4609
:104B700000F094F8431C02D12B6803B1236038BDC8
:104B8000740C002038B5064D0023044608462B60FF
:104B900000F04EF8431C02D12B6803B1236038BDEE
:104BA000740C002038B5074D002304460846114612
:104BB0002B6000F045F8431C02D12B6803B1236041
:104BC00038BD00BF740C002038B5064D00230446E4
:104BD00008462B6000F03CF8431C02D12B6803B15F
:104BE000236038BD740C002038B5074D04460846D4
:104BF000114600222A601A4600F032F8431C02D106
:104C00002B6803B1236038BD740C002038B5074D04
:104C100004460846114600222A601A4600F028F889
:104C2000431C02D12B6803B1236038BD740C0020F3
:104C3000024B58221A604FF0FF307047740C00206E
:104C4000024B58221A604FF0FF307047740C00205E
:104C5000024B58221A600020704700BF740C0020DD
:104C6000024B58221A604FF0FF307047740C00203E
:104C7000024B58221A604FF0FF307047740C00202E
:104C8000044A05491368002B08BF0B4618441060FE
:104C900018467047640C0020780C0020024B582204
:104CA0001A604FF0FF307047740C0020FEE700BF21
:104CB000F8B500BFF8BC08BC9E467047F8B500BF09
:104CC000F8BC08BC9E467047FFFFFFFFFFFFFFFFD9
:104CD000FFFFFFFFFFFFFFFF0000000000000000DC
:104CE0000000D60106010000E10300004D040000B1
:104CF000DD030000756172745F6C6F675F626163F2
:104D00006B656E64000000004261636B656E6473E6
:104D100020666C7573686564000000006170700047
:104D2000F40500207F000000740600201B5B313B6F
:104D300033316D0025734C6F67732064726F707030
:104D40006564202825642925730D0A001B5B306DDE
:104D500000000000257300003C25733E2025733AB7
:104D6000200000000D0A00002025303278000000ED
:104D7000202020007C000000256300001B5B313BED
:104D800033306D001B5B313B33326D001B5B313BBD
:104D900033336D001B5B313B33346D001B5B313BA8
:104DA00033356D001B5B313B33366D001B5B313B94
:104DB00033376D006572726F720000007761726E3A
:104DC000696E6700696E666F000000006465627559
:104DD000670000004C4D00007C4D00002C4D000091
:104DE000844D00008C4D0000944D00009C4D00004F
:104DF000A44D0000AC4D000000000000B44D0000C8
:104E0000BC4D0000C44D0000CC4D000046617461F3
:104E10006C206572726F720053797374656D2072C5
:104E200065736574000000000000000000000000D1
:104E30000338FDD87047000030313233343536370F
:104E400038394142434445466E756C6C00000000A1
:104E500066616C7365000000747275650000000087
:104E60006C696255415254455F6173796E6300000D
:104E70006C6962554152544500000000636C6F63D9
:104E80006B000000434C4F434B0000005254430062
:104E90004750494F544500005050490054494D4532
:104EA000520000005052530055415254000000007F
:104EB000554152544500000054656D70657261742F
:104EC000757265206578616D706C652073746172B0
:104ED0007465642E000000007B22616765223A320F
:104EE000357D00004572726F72206265666F726573
:104EF0003A2025730A00000044617461204F4B2062
:104F0000212121000000000000000000000000003E
:104F10000338FDD870470000AC0800200080004036
:104F2000000400000020202020202020202028280D
:104F30002828282020202020202020202020202059
:104F40002020202020881010101010101010101099
:104F500010101010100404040404040404040410C9
:104F60001010101010104141414141410101010157
:104F70000101010101010101010101010101010121
:104F8000101010101010424242424242020202022D
:104F900002020202020202020202020202020202F1
:104FA00010101010200000000000000000000000A1
:104FB00000000000000000000000000000000000F1
:104FC00000000000000000000000000000000000E1
:104FD00000000000000000000000000000000000D1
:104FE00000000000000000000000000000000000C1
:104FF00000000000000000000000000000000000B1
:1050000000000000000000000000000000000000A0
:105010000000000000000000000000000000000090
:1050200000000000000000002C000020232D302B89
:105030002000686C4C006566674546470030313299
:1050400033343536373839414243444546003031F0
:10505000323334353637383961626364656600004F
:105060000000000000000000000000000000000040
:105070000000000000000000000000000000000030
:105080000000000000000000000000000000000020
:105090000000000000000000000000000000000010
:1050A0000000000000000000000000000000000000
:1050B00000000000000000000000000000000000F0
:0450C00000000000EC
:1050C400500C0020F80B00200A000000080000002B
:1050D40001000000EC0B0020DC0B002003000000AA
:0850E4000400000001000000BF
:1050EC00844E000000000000904E00000000000004
:1050FC00984E000000000000A44E000000000000CC
:10510C008C4E0000000000009C4E000000000000CF
:10511C00A84E000000000000B04E0000000000008F
:10512C001C4D0000000003037C4E0000000000003A
:10513C00704E000000000000604E000000000000F7
:10514C00E84C000000000000F44C000014000020AB
:10515C00FC000020C4010020CC0100200401002030
:10516C0018000000D0080020D80B0020DB0B00201A
:08517C00D8080020000100002A
:08518400BCB0FF7F0100000038
:10518C000000000000200040000000000020004053
:10519C000000000000000000FF000000A53C000023
:1051AC00953C00000090D0032C0000200000000073
:1051BC0080500000A0500000605000000000000073
:1051CC0000000000000000000000000000000000D3
:1051DC0000000000000000000000000000000000C3
:1051EC0000000000000000000000000000000000B3
:1051FC0000000000000000000000000000000000A3
:10520C00000000000000000000000000250200006B
:04521C00010200008B
:04000003000002BD3A
:00000001FF
