:1000000000000120BD020000E5020000E702000040
:10001000E9020000EB020000ED0200000000000019
:10002000000000000000000000000000EF020000DF
:10003000F102000000000000F3020000F5020000E1
:1000400075220000F7020000552E0000F7020000A4
:10005000F7020000F7020000F1270000F70200009D
:100060004D2D0000A52D0000FD2D0000E122000017
:10007000F7020000F7020000F7020000F70200009C
:10008000F7020000E1100000F7020000F702000094
:1000900081110000F7020000F7020000F7020000E3
:1000A000F7020000F7020000F7020000F70200006C
:1000B000F7020000F702000000000000000000004E
:1000C000F7020000F7020000F7020000F70200004C
:1000D000F7020000F7020000F70200000000000035
:1000E0000000000000000000000000000000000010
:1000F0000000000000000000000000000000000000
:1001000000000000000000000000000000000000EF
:1001100000000000000000000000000000000000DF
:1001200000000000000000000000000000000000CF
:1001300000000000000000000000000000000000BF
:1001400000000000000000000000000000000000AF
:10015000000000000000000000000000000000009F
:10016000000000000000000000000000000000008F
:10017000000000000000000000000000000000007F
:10018000000000000000000000000000000000006F
:10019000000000000000000000000000000000005F
:1001A000000000000000000000000000000000004F
:1001B000000000000000000000000000000000003F
:1001C000000000000000000000000000000000002F
:1001D000000000000000000000000000000000001F
:1001E000000000000000000000000000000000000F
:1001F00000000000000000000000000000000000FF
:1002000010B5054C237833B9044B13B10448AFF350
:1002100000800123237010BD880000200000000032
:10022000D042000008B5034B1BB103490348AFF3AC
:10023000008008BD000000008C000020D0420000BB
:10024000A3F5803A704700BF174B002B08BF134B34
:100250009D46FFF7F5FF00218B460F461348144AD1
:10026000121A03F097FE0E4B002B00D098470D4B4F
:10027000002B00D098470020002104000D000D48FD
:10028000002802D00C48AFF3008003F051FE20009C
:10029000290003F059FB03F037FE00BF00000800FF
:1002A0000000000000000000000001208800002085
:1002B000DC08002000000000000000000649074A9A
:1002C000074B9B1A03DD043BC858D050FBDC03F0FE
:1002D00041FCFFF7B9FF0000504300000000002080
:1002E00088000020FEE7FEE7FEE7FEE7FEE7FEE708
:1002F000FEE7FEE7FEE7FEE7F0B595B000241D46F9
:100300000E460846174601F0D7FD30462346082220
:10031000099505A91A9D08970D950A948DF82C400A
:100320000C9401F02DFE9DF814308DF81140DDE99C
:10033000061003F00302012ACDE9020128D0022AA7
:1003400004D0304601F0BCFD15B0F0BDBDF816502C
:10035000C3F3C2038DF81030C5F389150827082DA3
:100360002C4628BF08243B4622460EA9304601F001
:1003700007FE2D1B214608AB02AA0EA8274400F059
:1003800011FD002DEBD1304601F09AFD15B0F0BD06
:10039000BDF81470059DC7F38312C3F3C2040EA900
:1003A0003046920008238DF81040C7F3831701F000
:1003B000E7FDC5F3952508AB3A4628460EA90093FC
:1003C00002AB00F077FC304601F07AFD15B0F0BDCD
:1003D000014B01221A707047E8000020704700BFEF
:1003E00000B583B0044B0093044A4023FFF784FF19
:1003F00003B05DF804FB00BF01040000A80000206A
:1004000038B50E480E4D03780E4CEB5C0025257078
:10041000D2B253B1043003F0EDF958B90A4B1B784E
:1004200013B12378002BFCD038BD0C3002F058FFFC
:100430000028F3D000F058FDF0E700BF00000020D6
:10044000D8080020E8000020A40000202DE9704317
:1004500019481A4A0378D35C88B02BB3043003F0F0
:1004600045F9174D0FCD6C460FC495E80F004FF0BE
:10047000EB7684E80F004FF006084FF0FF394FF09D
:10048000FF344FF0FF350C48069600226946CDE94F
:100490000089CDE9024501F0F3FD48B9094B00227E
:1004A0001A7008B0BDE870830C3002F0B3FED8E7D4
:1004B00000F01AFDF2E700BF00000020D80800207D
:1004C000D03F0000A4000020F0B5154D0FCD89B03D
:1004D0006C460FC495E80F004FF0EB7C84E80F00EA
:1004E00006264FF0FF374FF0FF344FF0FF350D4A2F
:1004F0000D48CDF818C06946CDE90067CDE9024541
:1005000001F0BEFD20B9094B01221A7009B0F0BDFF
:1005100000F0EAFC054B01221A7009B0F0BD00BFE3
:10052000D03F0000D103000000000020A400002004
:1005300008B5FFF7C9FF0448042100F037FB034B5F
:1005400001225A7108BD00BF24430000140000209E
:1005500038B50C4B0C48002400250022C3E90045A7
:10056000FF21C3F81824996083F82024C3F81424C9
:1005700001F056FC044610B9044801F035FD204650
:1005800038BD00BFC00100203443000028400000F7
:1005900099B10E4B0E495B1ADB0815D030B400221E
:1005A0000C4D02E0013293420BD035F822408442D8
:1005B000F8D151F8320030BC7047054951F830008D
:1005C0007047002030BC7047184670472443000035
:1005D000D442000088000020094B013903EBC00021
:1005E00003290BD8DFE801F0040208060420704755
:1005F00002207047407970470079704700207047AB
:10060000D44200002DE9F047934CD4E900239A42EC
:1006100084B063D00023C4F81834BFF34F8FD4E9FB
:10062000013503EA0501CA1C04EB820614F82220F6
:10063000500719D52768327802F00302012A43D007
:10064000022A03D17288023303EB921305EA0301F5
:10065000D4F81804CA1C04EB820628B99F4239D981
:1006600014F822205207E6D404EB81015A1CC96811
:1006700001912A4004EB820201F00301D268029248
:10068000022903F102062DD0012900F09080D4F850
:1006900010543DB12B6828469B689847EB681D684D
:1006A000002DF7D16D486E4B6E49C01AC00800048A
:1006B00040F0020000F0DCF8D4E90030C01A18BFA6
:1006C000012004B0BDE8F08732880233C2F3831200
:1006D0001344BBE7676004B0BDE8F087002004B0B6
:1006E000BDE8F087BDF806305F48C3F38919B9F15A
:1006F000500FC84628BF4FF0500868F38F1308F119
:100700000801ADF8063001F08DFB07460028BED089
:1007100001F0D2FB0023082201A9384601F0FCFBBE
:1007200025EA06030133B8EB830F4FEA830A78D931
:10073000BAF1000F00F0888005EA06010331A8EB4A
:100740000A0804EB81010823524638465FFA88F80C
:1007500001F0E2FB454942460AF10803384601F040
:10076000DBFB09F1030906EB9906D4F81834002BDA
:1007700066D1D4F8105465B1EB685A7928463946E9
:10078000002A59D02B681B689847EB681D68002D1C
:10079000F2D1384601F094FB002000F0EDFBD4F8D4
:1007A000183403B96660002000F0EEFB84E7BDF862
:1007B00004302D48C3F38312062A28BF0622911C59
:1007C00062F389138900ADF8043001F02BFB074672
:1007D00000283FF45CAF01F06FFB0023082201A961
:1007E000384601F099FBBDF8043013F4707FBCD09B
:1007F0004FF00008314629404FEA8803033108339F
:1008000004EB81010422384601F086FBBDF8043078
:1008100008F10108C3F38313434506F10106E9D843
:10082000A3E705EA0601033104EB810142460823F0
:10083000384601F071FB94E71D68002D9CD1A8E7B4
:10084000384601F03DFB37E7084942460823384661
:1008500001F062FB85E700BFC001002014430000E7
:10086000D44200001040000034430000CC010020BE
:100870002DE9F04F624C87B006460020A568019133
:1008800000F07AFBD4E9012327681A440132D21B15
:10089000012A00F2858004F21C4804F5836A04F200
:1008A00014491BE0BDF80E30C3F389130333090C60
:1008B0000BEB930B4846009100F0AAFB009900282F
:1008C0003ED04046C4F804B000F076FBD4E90113F2
:1008D000226819440131891A012962D80121404650
:1008E00000F06AFB504600F083FB484600F080FBB6
:1008F000D4E9013C03EA0C02D11C04EB810014F89A
:1009000021E01EF0040F0EF0040129D104EB820255
:10091000591CD268039201EA0C0104EB810102F038
:100920000302012AC96803F1020B32D0022AB9D0AE
:1009300000214846009100F06BFB00990028C0D1CF
:100940004046C1E743880BEB93130CEA0302D11C2A
:1009500004EB810014F8211001F004010029D5D026
:1009600090F800E00EF0030EBEF1010F0BD0BEF1C7
:10097000020F03F1020B02F1030EE3D004EB8E0031
:100980000029EDD1C2E702880233C2F38312134477
:10099000DBE7BDF80C30C3F38313090C9B4489E7F4
:1009A0003A461340033302320521002044F8231055
:1009B000226000F0E9FA0021124800F0EFFA80F31B
:1009C0001000F1007B1C2B40019A01F038013D40E2
:1009D00004EB830341F001010004033540EA1646AD
:1009E00041EA8221DE6044F8251094F820341BB1DE
:1009F000FFF708FE0028FBD107B0BDE8F08F00BF6D
:100A0000C0010020DC0500202DE9F04F654C89B0C5
:100A100007460020CDE90212A56800F0ADFAD4E93E
:100A2000012326681A440132921B022A00F28580B3
:100A300004F21C4804F5836A04F214491BE0BDF873
:100A40001630C3F389130333090C0BEB930B4846A1
:100A5000019100F0DDFA019900283ED04046C4F82B
:100A600004B000F0A9FAD4E9011322681944013155
:100A7000891A022962D80121404600F09DFA5046A9
:100A800000F0B6FA484600F0B3FAD4E9013C03EAB4
:100A90000C02D11C04EB810014F821E01EF0040FBD
:100AA0000EF0040129D104EB8202591CD268059290
:100AB00001EA0C0104EB810102F00302012AC9687A
:100AC00003F1020B32D0022AB9D00021484601912D
:100AD00000F09EFA01990028C0D14046C1E7438842
:100AE0000BEB93130CEA0302D11C04EB810014F806
:100AF000211001F004010029D5D090F800E00EF09B
:100B0000030EBEF1010F0BD0BEF1020F03F1020B79
:100B100002F1030EE3D004EB8E000029EDD1C2E711
:100B200002880233C2F383121344DBE7BDF81430AA
:100B3000C3F38313090C9B4489E732461340033304
:100B400003324521002044F82310226000F01CFAF3
:100B5000B31C2B4004EB8303039A1348DA60002193
:100B600000F01CFA80F31000F900731C2B40029A6D
:100B700001F03801354004EB830341F041010004EA
:100B8000033540EA174741EA8221DF6044F8251027
:100B900094F820341BB1FFF735FD0028FBD109B0D4
:100BA000BDE8F08FC0010020DC05002030B4154DF9
:100BB000D5F810140446002071B10B4601E01B6803
:100BC00053B1DB681A798242F9D101300A28F3D196
:100BD0004FF0FF3030BC7047E3681871D5F810341F
:100BE0004BB1DA68E36812681A60D5F81034DB6834
:100BF0001C6030BC7047C5F81044E268136030BC1C
:100C0000704700BFC001002038B5094BD3F810442D
:100C1000012583F820544CB1E3685D7123682046B8
:100C20005B689847E3681C68002CF5D138BD00BFAD
:100C3000C001002030B5C38885B004460D461BBBFB
:100C4000217A05291ED0627A82B9134AA08852F807
:100C5000212003920021FFF79BFC039A0F490346D2
:100C6000284605B0BDE8304000F03EBDA088FFF743
:100C7000B3FC0B4B0B4953F82020284600F034FD01
:100C8000217AE2E705B030BD074A00920749084AD9
:100C9000284600F029FDD3E7004100006040000035
:100CA000DC4000005C400000544000003C4000007C
:100CB000344000002DE9F04385B04FF0000C0C9C4F
:100CC000814694F80C8084F80CC00E4617461846EE
:100CD00021461D46FFF7AEFF062F09D8DFE807F0D3
:100CE000042E343B444F1F004946204600F0FCFCD4
:100CF0002B7A052B05D06B7A5BB92749204600F08B
:100D0000F3FC204600F0E4FC84F80C8005B0BDE85C
:100D1000F083224A2249204600F0E6FCEDE7D6E9BE
:100D20000413F2680393B3680291CDE90032494697
:100D3000D6E90023204600F0D7FCD9E732684946BF
:100D4000204600F0D1FCD3E7D6E9002349462046EF
:100D500000F0CAFCCCE7B3680093D6E9002349460B
:100D6000204600F0C1FCC3E7D6E9023201920093AD
:100D7000D6E900234946204600F0B6FCB8E7D6E99C
:100D80000321B3680291CDE900324946D6E9002338
:100D9000204600F0A9FCABE76C4000005440000086
:100DA0005C400000082900D970472DE9F04F9B46B0
:100DB00083B000241B7B8BF80C400D460646594639
:100DC000104690460193DFF8D0902C4FFFF732FF8A
:100DD00005E0325D013400F087FC082C09D0A54203
:100DE00039465846F5D84946013400F07DFC082CB8
:100DF000F5D12349DFF8A490224C234F584600F048
:100E000073FC4FF0000A0DE0D15D11F0970F08BFA1
:100E10002E22214658460AF1010A00F065FCBAF17B
:100E2000080F10D0554505D916F80A207E2AEBD9AF
:100E30002E22EEE7494658460AF1010A00F054FC1A
:100E4000BAF1080FEED198F80830052B02D098F8C7
:100E5000093063B90D49584600F046FC584600F089
:100E600037FC019B8BF80C3003B0BDE8F08F084ACB
:100E70000849584600F038FCECE700BF704000001D
:100E80007C40000080400000C94100006C40000030
:100E9000544000005C4000007840000068400000C2
:100EA000C10719D54FF0A043032210B44FF400211D
:100EB000C3F844274FF40034C3F84C278207C3F823
:100EC0000C45C3F80C1504D54FF0A0430C22C3F811
:100ED0001C275DF8044B7047830742BF4FF0A043C7
:100EE0000C22C3F81C27704700B585B003460021CB
:100EF00001AA44F20100CDE90111039300F004F8C6
:100F000005B05DF804FB00BF10B572B6FFF77CFEBC
:100F1000FFF778FB0028FBD1104B114C1149E41A64
:100F2000E408240444F00100FFF7A2FC0E4B1B6808
:100F3000DB0700D500BE0D4944F00200FFF798FC26
:100F4000BFF34F8F0A490B4BCA6802F4E0621343A8
:100F5000CB60BFF34F8F00BFFDE700BFD44200005E
:100F60001443000014410000F0ED00E020410000B7
:100F700000ED00E00400FA0572B6024A136801337E
:100F8000136070477C060020034A1368013B13601E
:100F900003B962B6704700BF7C06002010B4034658
:100FA00053E8000F0A4643E8002494F0000FF7D1FD
:100FB0005DF8044B704700BF10B4034653E8002FA0
:100FC00002EB010043E8000494F0000FF6D15DF855
:100FD000044B704710B4034653E8002FA2EB010006
:100FE00043E8000494F0000FF6D15DF8044B70471D
:100FF00010B40346012253E8001F41EA020043E80F
:10100000000494F0000FF6D15DF8044B704700BF68
:1010100010B40346002253E8000F00EA020143E83F
:10102000001494F0000FF6D15DF8044B704700BF38
:10103000B8B130B4D0E90112521A0468D2B2531ECA
:101040002160DBB242B101680A685C1E551C0D606C
:101050001370E3B2FF2BF6D103680020187130BC87
:1010600070470E20704700BF38B504460020FFF7D8
:1010700083FFD4E900311A688A4215D9511E1960DC
:101080002168A3680868258A12F8012CE4681B1AF5
:101090000879DBB2984205FB024400D20B710020B4
:1010A000FFF772FF204638BD00240020FFF76CFFD9
:1010B000204638BD38B5054600200C46FFF75CFFDA
:1010C0002A681368591C1160E9682A8A641AB4FBFB
:1010D000F2F41C70BDE838400020FFF755BF00BF98
:1010E000F8B52049204B0024C1F84041C1F84441E3
:1010F000C1F84841C1F84C41C1F80041C1F8044170
:101100001B6833B31948D1F8045501681A686D1A81
:1011100025F07F45AA4227460DD8197CDE69AD1A15
:10112000144419B1D3E905201F7490471EB133460A
:101130001A68AA42F1D90E490E4A0B7812789A42DF
:1011400008D00D490D4A41F823404FF48013C2F8EE
:101150000031F8BD531CDBB2022B08BF00230B701B
:10116000EFE700BF00100140A00700209C0700200F
:1011700099070020980700209007002000E100E078
:101180002DE9F04FB34AB44913780978994285B0F4
:1011900000F088810133DBB2022B08BF0023AF4887
:1011A0001370AF4A0568DFF8D08252F82310D8F8E0
:1011B00000606B1823F07F430360002E00F0C181B4
:1011C00000200746044684463346AE4613E0D868FE
:1011D000DD69C3F800C0891A144438B10EEB04026B
:1011E00022F07F42C3E90120DF611F460120002D6C
:1011F00000F05F812B461A688A42E8D9002800F087
:101200008B81C8F800309946521A1A600123009366
:10121000944B954EDFF864A243F0010301934D46D1
:101220004FF0000B002F31D0D7E901303C46FF6969
:101230008A4ADFF84CC21268991A21F07F41614551
:1012400000F2DD800B18236000220121C4E9012295
:10125000E2612174002D00F0F3802A689A4280F048
:10126000E880294605E0D1F800E09E4580F0CF8077
:1012700072460846C9699C469B1A0029F3D123602F
:10128000E161C4612C462546002FCDD170783378BA
:10129000984247D09C460CEB4C0CB27806EBCC0C39
:1012A000591CCBB29A429CF80420337004BF00232F
:1012B0003370022ADCF8084024D0032A18D0012A0F
:1012C000E6D1227C002AE3D1DCF80C306360DCF844
:1012D0001000A060DCF81410E1609AF800E0DCF87F
:1012E0001810A161BEF1000FA2D0626013469FE703
:1012F000002DCDD000232B74ED69002DFBD1C8F853
:101300000050C3E755B1AC4200F0BC802A4601E072
:10131000944239D01146D269002AF9D100222274B0
:101320009842B7D1BBF1000F01D1A94541D0002DA2
:1013300044D04A4A4D4B1468D3F804654C4FD5F855
:1013400000803A78351B25F07F450335002A00F0F0
:10135000B580464AA8452CBF4444641924F07F4414
:10136000C2F84045D2F804359B1BA41B23F07F43F1
:1013700024F07F440333A34200F2B98000238AF8AB
:10138000003005B0BDE8F08F8C427DD0E069226866
:10139000C861002858D0AC46036813440360AC45CC
:1013A00052D0002233787078227465464FF0010BDA
:1013B000B6E7009B002BE1D0002DBAD12B4E2D4A71
:1013C000284C4FF400314FF480330127C2F88010CD
:1013D0003C43C6F848334FF43C60C6F808337760A6
:1013E000A0471E4BB7604FF43C601D60A047204BE8
:1013F0001D7000238AF8003005B0BDE8F08FD31AC5
:1014000023F07F4383420BD2C31A23601CE772444C
:10141000A2EB0C020A602360E161C4612C4632E752
:1014200000230122C4E90033A360E36122743DB1CB
:101430002A68C8F80040D31A2B60E561254623E7E7
:10144000C8F8004025461FE70022337870782274E0
:1014500066E700BF98070020990700209C0700203E
:10146000900700203041000080060020001001405D
:101470008D07002000E100E0A00700208C0700207D
:10148000FEFF7F0029462A46D5F81CC0C8F800C0D8
:10149000BCF1000F42D0D0691268C86100287FF407
:1014A0007BAF7CE7DFF8B4800027D8F80090009786
:1014B000AEE6A946C8F800500090A9E62349244AA0
:1014C0004FF48030C3F844034FF00109C3F804031C
:1014D0004FF40030C1F8800142F001020860C3F807
:1014E00000904FF43C60904787F8009031E7184B2C
:1014F000D2F80415C2F8401543F001034FF43C60E4
:101500009847124B4FF40032C3F8002100238AF8A9
:10151000003005B0BDE8F08FB14675E6CDE9022197
:101520000C4A0D4801239360C0F800C08AF80030CF
:101530004FF43C60019B9847DDE90221D8F800C0D8
:10154000A9E70123B1463746009361E600E100E0D8
:1015500030410000001001409C070020A00700203F
:101560002DE9F8431F4D204E204FDFF898804FF4AF
:1015700080334FF400324FF001090024C6F8802078
:1015800047EA0907C5F848334FF43C60C5F808330B
:10159000C5F80490B847C5F808904FF43C60C8F807
:1015A0000040B847124A134B13491C601470134B88
:1015B000134A0C700B2114701C8099704FF4801228
:1015C000C023C6F8802186F814333260C5F8084578
:1015D00086F81133D5F80435C8F800302046BDE848
:1015E000F88300BF0010014000E100E0304100003E
:1015F0008D070020A007002098070020800600200B
:10160000990700209C070020074B9B783BB142B113
:1016100038B10368187C10B959745A6170470820B2
:1016200070470720704700BF800600202DE9F04179
:10163000234EB378002B37D00446002834D0214BFA
:1016400090464A1F9A420D4631D8436963B3437CA2
:101650000020012B0CBF0F460746FFF78DFC737867
:10166000B0783278591CC9B2884208BF00218A423A
:1016700020D003EB430306EBC3030120124A187189
:101680009C60D2F80425DA60C3E904570020C3F84F
:1016900018807170FFF778FC0C4B4FF48012C3F880
:1016A00000210020BDE8F0810820BDE8F08107207E
:1016B000BDE8F0810020FFF767FC0420F2E700BFDF
:1016C00080060020FAFFFF000010014000E100E06A
:1016D000826842B110B504464369016800699847C1
:1016E0000023A36010BD70470EB400B582B003990B
:1016F00021B104AB01AA019300F0ACF802B05DF88F
:1017000004EB03B0704700BF2DE9F04F164683B0DD
:10171000B142DDE90C920F4605469A46C0F095802D
:101720000B464FF00108B3FBF6F39E4208F10108A7
:10173000F9D9D04538BFD04612F00103019302D148
:10174000B9F1000F5ED1AA68012403E00AF1FF3A63
:1017500006FB04F4BAF1010FF8D8B7FBF4F39E428C
:10176000F6D9DFF8ECA007E0B442B4FBF6F31AD3E5
:10177000AA681C46B7FBF3F31AF803B0BBF10A0FD3
:1017800004FB137728D02B68511CA96003F802B022
:10179000D5E901329A42E7D32846FFF799FFB4FB17
:1017A000F6F3B442E4D2019B9BB1B9F1000F10D023
:1017B0002024C84509F1FF390BD2AB682A68591CAF
:1017C000A960D454D5E901329A4214D2B9F1000F7C
:1017D000EFD103B0BDE8F08F511C2B68A9604FF02A
:1017E0000D019954D5E901329A42CCD32846FFF72E
:1017F0006FFFAA68C7E72846FFF76AFFB9F1000F35
:10180000D7D1E6E793071AD42024AA68C84502F185
:10181000010199D22B68A9609C54D5E901329A4202
:1018200009F1FF3903D2B9F1000FEFD18CE7284657
:10183000FFF74EFFAA68B9F1000FE7D184E7BAF1CC
:10184000000F0CBF30242024DFE74FF0010870E7C1
:1018500038410000002900F054822DE9F04FDFF8F4
:10186000B8950C7885B0064690460D464FF00D0AA7
:1018700010E00A2CB36800F0AD803268591CB160EA
:10188000D454D6E901329A4280F0A0802C78002C02
:1018900000F087800135002C00F08380252CE8D1F2
:1018A000294600270D4611F8012B2D2A00F08880CB
:1018B000302A00F088802B2A7AD02A2A00F09980DA
:1018C000A2F13003092B4FF000040BD804EB840481
:1018D00002EB440415F8012FA2F13003092BA4F107
:1018E0003004F3D92E2A00F09080002301E015F88F
:1018F000012F02F0FB016829F9D0252A00F0778139
:10190000583AD1B2202947D8202A45D8DFE812F02A
:1019100035014400440044004400440044004400B5
:1019200044004400440043011301440044004400C7
:1019300044001301440044004400440044004400B7
:10194000D20044004400A20044009400440044003B
:10195000350101209842024638BF1A460292002CF7
:1019600040F05081B80740F16E81002B40F04E826C
:101970001C46BBF1000FC0F20A827A0700F11A82FE
:1019800007F00302022A00F0EA81CDE90047594638
:101990000A223046FFF7B8FE01352C78002C7FF480
:1019A00079AF337B002B40F01C8105B0BDE8F08F90
:1019B0000D4611F8012B2D2A47F004077FF478AF6C
:1019C00047F001076EE747F002076BE73046FFF785
:1019D0007FFE5BE73268591CB16002F803A0D6E9CC
:1019E00001239342FFF449AF3046FFF771FEB3681D
:1019F00043E7D8F800301A1DC8F800206A781C6840
:101A00002E2A05F101057FF470AF6A78A2F1300348
:101A1000092B05F101054FF000033FF66AAF03EB18
:101A2000830302EB430315F8012FA2F130010929CA
:101A3000A3F13003F3D95CE7D8F80020111DC8F8F2
:101A4000001011683046CDE900470A22FFF75CFE1E
:101A50000135A2E7D8F800301A1DC8F8002017F0A9
:101A60000107D3F800B040F0F080BBF1000F03D0C5
:101A7000584602F097FA0746BC4240F24381002CD8
:101A800000F04081202205E0BC4200F03B81002CA8
:101A900000F03881B1683368481CB0605A54D6E908
:101AA0000130984204F1FF34EED33046FFF710FEC8
:101AB0002022E9E7D8F80020131DC8F80030B368E9
:101AC00031681768581C3022B060CA54D6E9012327
:101AD000934280F0EF803268581C7821B060D15476
:101AE000D6E901329A4280F0E0800F2F03D93B46BD
:101AF0001B090F2BFCD84FF0805406E00F2C4FEA47
:101B000014137FF649AFB2681C46B7FBF4F319F81B
:101B100003B0BBF10A0F04FB137754D03368511C98
:101B2000B16003F802B0D6E901329A42E6D33046FA
:101B3000FFF7CEFDE2E7D8F80020111DC8F800102D
:101B4000D2F800B08BEAEB72A2EBEB72092A7FF7B6
:101B500000AFDFF8C8C2012011466329ACFB02E2E6
:101B600000F101004FEAD202F6DC9842024638BF8B
:101B70001A460292002C45D1F4E6D8F80020111D37
:101B8000C8F8001011683046CDE900471022FFF771
:101B9000BBFD013501E7D8F800301A1DC8F8002058
:101BA0001C78B3680A2C00F011813268591CB160AE
:101BB000D454D6E901329A42FFF4EEAE3046FFF734
:101BC00087FD0135E9E63368511CB16003F802A0D6
:101BD000D6E901329A42A1D33046FFF779FDB268C7
:101BE0009CE7304605B0BDE8F04FFFF771BDB36824
:101BF0003168581CB060CA54D6E901329A42DDD22D
:101C00000135CAE6BBF1000F59DB7A0757D4B80794
:101C100002D5002B3FF4ADAEF9073FF5AAAE94B163
:101C200020220299A142BFF4A4AEB168481CB06062
:101C300030684254D6E90101814204F1FF3480F05A
:101C4000D480002CEDD1002493E69BF80030002BCB
:101C500000F0E080B0685F46CBF101020A2B02EB96
:101C6000070B3CD0411CB16031680B54D6E9013000
:101C7000984226D217F8013F002BEFD15C457FF642
:101C80008BAE202702E05C453FF486AEB268336835
:101C9000511CB1609F54D6E901329A4204F1FF34DD
:101CA000F1D33046FFF714FDEDE73046FFF710FDA6
:101CB000B2681AE73046FFF70BFDB3680BE7013C4B
:101CC000A5E730460292FFF703FD17F8013F002B0E
:101CD000D4D0029AB0680A2B02EB070BC2D1411C88
:101CE000B160316801F800A0D6E901108842B9D38B
:101CF0003046CDE90232FFF7EBFCDDE90232B06895
:101D0000B0E770479BF80040002C3FF445AE0A2C2A
:101D1000B0680ED03368421CB2601C54D6E9013062
:101D2000984214D21BF8014F002C3FF435AE0A2C18
:101D3000F0D13368421CB26003F800A0D6E901304C
:101D40009842E7D33046FFF7C3FCB068E2E730467D
:101D5000FFF7BEFC1BF8014F002CD8D11CE6002B6E
:101D60007FF413AE8CB130220299A142BFF40DAEC4
:101D7000B168481CB06030684254D6E90101814224
:101D800004F1FF343BD2002CEED10024FDE5B16814
:101D90004A1CB26032682D205054D6E9012191428C
:101DA000CBF1000BFFF4ECAD30460393FFF790FC52
:101DB000039BE5E5B1684A1CB26032682B205054A1
:101DC000D6E901219142FFF4DBADEDE73268591C01
:101DD000B16002F803A0D6E901239342FFF4E5AE17
:101DE0003046FFF775FCB368DFE630460393FFF734
:101DF0006FFC039B2022002C7FF413AF23E73046B7
:101E00000393FFF765FC039B3022BCE7F9073FF51E
:101E1000B0AD18E79B4631E738410000CDCCCCCCC3
:101E2000FFF706B92DE9F041058A0331043D4E194B
:101E30008046B6FBF5F6FFF717F9A0B3F6B24FF4FC
:101E40008073013E0446C580C0F8008083802BD09B
:101E50000346002508E06279AE4202F10102627198
:101E60003860C0F800801FD040461F46FFF7FCF8DE
:101E7000013503460028EED16779791E17D0224636
:101E8000013399421268FBD1D2F800805FB1266815
:101E9000002501E034463668214601354046FFF70B
:101EA00009F9AF42F6D800242046BDE8F081206849
:101EB0002146FFF7FFF8F6E704300121FFF77CB871
:101EC0002DE9F041012104460430FFF783F810F0BA
:101ED000FF0301D0BDE8F0816779791E16D0224654
:101EE000013399421268FBD1D2F80080002FF1D063
:101EF0002668002501E03446366821460135404613
:101F0000FFF7D8F8AF42F6D8BDE8F0812068214647
:101F1000BDE8F041FFF7CEB82DE9F8430546C68885
:101F20004079144606FB00F2043A04EB030C1F1D33
:101F3000624538BFD41ABE428846B7FBF6F106FBAD
:101F4000117002D801392D68FCD1371AA74228BF79
:101F500027469CB14FF000090430E41B28443A4660
:101F600008EB090102F008F8A642B9442D6837468B
:101F70004FF0000028BF2746002CEDD1BDE8F883C4
:101F80002DE9F8430546C6884079144606FB00F261
:101F9000043A04EB030C1F1D624538BFD41ABE423D
:101FA0008846B7FBF6F106FB117002D801392D689F
:101FB000FCD1371AA74228BF27469CB14FF0000931
:101FC00004302918E41B3A4608EB090001F0D4FF5D
:101FD000A642B9442D6837464FF0000028BF274677
:101FE000002CEDD1BDE8F8838268002393608268FD
:101FF0001361826853618268D3608268536082682B
:1020000013607047034B187810B901221A7070479B
:1020100085207047A407002030B585B00478456856
:102020008DF80040D0E90240064A074B039053F870
:102030002130019552F821108DF8084068469847E4
:1020400005B030BDA8070020AC07002030B585B032
:10205000047845688DF80040D0E90240064A074BF5
:10206000039053F82130019552F821108DF8084063
:102070006846984705B030BDA8070020AC0700208F
:10208000F0B51A4B90F800C0194C1A4D91F81DE0AC
:1020900044F82C200746086945F82C0003F80CE0AA
:1020A0000C4616460FCC89B06D460FC594E80F005C
:1020B00085E80F00CDF810C0BEF1000F0AD0002E49
:1020C0000D4A694607F1040008BF324601F024FAC0
:1020D00009B0F0BD002E094A694607F10C0008BF9F
:1020E000324600F0C9FF09B0F0BD00BFD80800209B
:1020F000AC070020A8070020192000004D20000098
:1021000010B568B90E4CA368012262703BB1D3E9E7
:1021100000230020A2609847A368002BF7D110BDD0
:102120000128FCD1064C2369A070002BF7D0D3E91D
:1021300000230120226198472369002BF7D110BDAD
:10214000B007002010B50B4C237882B013B1852066
:1021500002B010BD08486360A3602361E36000F033
:102160003BF8019000F044F801980123237002B07D
:1021700010BD00BFB00700200121000038B5154D8B
:10218000AB78044673B110B1436801209847002032
:10219000FEF7F2FEEB680133EB600020BDE838404B
:1021A000FEF7F2BE03F0FF00FEF7E6FE64B12A6917
:1021B00042B1944208D0134601E09C4204D01B680F
:1021C000002BFAD122602C61EB68002BE2D100F0E9
:1021D00021F8DFE7B0070020044A137923B9012171
:1021E000106091801846704785207047C407002012
:1021F000074B1A68D20704D4C021012283F80013C8
:102200001A604FF080430122C3F81825704700BFC1
:1022100000E100E010B41349134B144A0020086099
:1022200083B0096801914FF080410220019CC1F800
:102230000403D86840F08071D960146844F0010349
:102240001360516853685B1AB3F50A5FFAD3064905
:10225000074B14600122C8601A6003B05DF8044B9C
:10226000704700BF04010040F0ED00E0001000E006
:102270000800004010B5174B1A6882B062B1002107
:10228000154A19601B68507900934FF08041012373
:10229000009CC1F8083398B1104B1A68BAB10022FB
:1022A0001A601B6801934FF0804202210A4B01988B
:1022B000C2F808131B68012002B0BDE8104018479F
:1022C000116853718847054B1A68002AE7D102B09C
:1022D00010BD00BF00010040C40700200401004001
:1022E0002DE9F041274F284EDFF8A08084B000246C
:1022F0004FF48035D7F804332B4211D056F8242000
:102300000023E0B262B1C7F84853C7F8085346F853
:10231000243056F824300393D8F80030039A9847B5
:102320000134032C4FEA4505E4D1164BD3F80423BE
:10233000D10702D5D3F80021C2B9124BD3F8042338
:10234000920710D5D3F804216AB10022C3F8042102
:10235000D3F804210D4B0192019A1B68052004B0AB
:10236000BDE8F041184704B0BDE8F0810022C3F891
:102370000021064AD3F80031029304201368029A20
:102380009847DAE700B0004040B10040CC07002099
:10239000F0B51F4C94F8495083B0A5BB4FF0FF3304
:1023A0004FF0FF364FF0FF372946042204F1450075
:1023B000C4E90933C4E90B33C4E90D33C4E90F336D
:1023C000C4E90033C4E90267C4E90467C4E90667E5
:1023D000236284F8443001F0DDFD0E4A0E4B0F49B4
:1023E0001D60C026402082F8066310601B680193C0
:1023F00001984FF000430122284684F84920C1F893
:10240000043303B0F0BD0825284603B0F0BD00BF7B
:10241000D007002000E100E07C6100400060004047
:1024200070B4414B1A1892F92440013402D00820AC
:1024300070BC70478C78E4B11A6801326AD05A686F
:10244000013269D09A68013268D0DA6801325FD00F
:102450001A69013264D05A69013263D09A69013233
:1024600027D0DA69013208BF072223D0042070BCCC
:102470007047FE2382F824304B78012B42D0012391
:102480004FF0A0428340C2F80C3500F5E0724FF0E7
:10249000A043032143F82210C208244900F007009A
:1024A0008C5C012303FA00F020438854002070BCA8
:1024B00070470622940004F1804404F5C0441D18BE
:1024C000002643F8226085F82420D4F810350A78D5
:1024D0004D7823F4981323F4F85312042D05C4F80F
:1024E000103505F4801502F4403203022A4303F448
:1024F000F853D4F8105513432B43C4F810354B78D8
:10250000012BBCD14FF0A0428340C2F80835BCE794
:102510000322CFE70022CDE70122CBE70222C9E761
:102520000422C7E70522C5E7D007002015080020D0
:102530004FF0A0410122D1F8043502FA00F020EA60
:1025400003020340C1F80825C1F80C35704700BFED
:10255000074B184490F924309B0003F1804303F5A6
:10256000C043D3F8102542F00302C3F8102570478A
:10257000D0070020054B184490F924008000C0B219
:1025800000F1804000F5C040704700BFD007002038
:10259000F0B44D4B1C1894F92450002D60DA8D785E
:1025A000AF071BD51D68013500F083805C680134DE
:1025B0006FD09C68013474D0DC68013473D01C691E
:1025C000013472D05C69013471D09C69013476D0D9
:1025D000DC69013475D00420F0BC70471D6A0135F8
:1025E000F9D1082584F824501A6283F844002C4657
:1025F0008A78550714D4D60741D44D784FF0A046B9
:1026000000F5E072AD0046F82250304EC50800F0EB
:10261000070C775D012202FA0CF23A4372558A7870
:1026200012F002021FD0A30003F1804303F5C04360
:102630000978D3F8104524F4473424F44074C3F8DF
:10264000104502020904D3F8100501F4403102F4E8
:10265000F8520A430243C3F810250020F0BC70472B
:102660000820F0BC7047083C2344087893F84410D5
:1026700041EA801183F844101046F0BC7047820094
:1026800002F1A042D2F8005725F00205C2F8005727
:10269000BBE701241D1843F8242064B285F82440C8
:1026A000A6E70224F6E70324F4E70424F2E705246E
:1026B000F0E7002584F824501A602C4698E7062499
:1026C000E8E70724E6E700BFD00700201508002050
:1026D00070B42C4C251883B095F92420072A1CDDF2
:1026E000224492F83C309B09032B40D0012B0CBFB5
:1026F0004FF400334FF44033800000F1A040D0F895
:10270000002722F44032C0F80027D0F800271343F6
:10271000C0F8003703B070BC7047D3B2072BF9D8AC
:10272000900000F1804000F5C04002F140039B00A2
:10273000D0F810659BB203F1804303F5C04346F027
:102740000106C0F81065002018601B680193019B0A
:102750000029DFD095F9243054F82330002BD9D04C
:102760000949012303FA02F2C1F80423D2E74FF02A
:10277000A043D3F81035C34003F0010302331B0418
:10278000BAE700BFD007002000600040164B0344AA
:1027900093F92430072B0DDD800000F1A040D0F824
:1027A000003723F44033C0F80037D0F80037C0F8C2
:1027B00000377047DAB2072A14D810B49A0002F131
:1027C000804202F5C042094CD2F81005012120F0E8
:1027D000010001FA03F3C2F81005C4F808335DF8EC
:1027E000044B7047704700BFD007002000600040D6
:1027F0002DE9F04186B0B34A002301931168012905
:1028000000F0B6801E46B04B1A68012A00F0C08066
:10281000AE4B1A68012A00F0CD80AD4B1A68012A30
:1028200000F0DA80AB4B1A68012A00F0E780AA4B6F
:102830001A68012A00F0F480A84B1A68012A00F0F7
:102840000181A74B1A68012A00F00E81A54B1A6876
:10285000012A00F02881002E38D0A34F0024012542
:10286000A30003F180432E4203F5C0434FEA450520
:102870000BD0D3F8100557F82420D3F81015C0F367
:102880000420C1F3014102B190470134082CE7D183
:10289000002E1BDA00224FF0FF33CDE90223924CC9
:1028A000012502AE94F94430D9B203F03F00013360
:1028B0000CD006AB03EBD00701F0070317F80C2C84
:1028C00005FA03F31A424FEAD00C02D106B0BDE874
:1028D000F0812218890992F9242054F82280B8F155
:1028E000000F3DD003293DD0820002F1A04217F82D
:1028F00014CCD2F800771CEA030FC7F3014720D1AC
:10290000032FE3D1032920D14FF40033D2F800176D
:1029100021F44031C2F80017D2F800170B43C2F877
:102920000037B8F1000F01D00321C0474FF0A0439A
:10293000019AD3F810359A42C8D0029A01930392B3
:10294000B0E7022FC2D1032907D0B8F1000FBDD0E4
:10295000434606B0BDE8F04118474FF44033D5E791
:102960000329B3D116F80C201A4306F80C20BBE754
:102970005E49D1F8046316F001063FF444AF1360DA
:1029800013680493049B504B1A68012A7FF440AFEC
:10299000564AD2F8042392077FF53AAF00221A6014
:1029A0001B680493049B494B1A68012A46F00206EF
:1029B0007FF433AF4D4AD2F8042357077FF52DAF8C
:1029C00000221A601B680493049B414B1A68012A79
:1029D00046F004067FF426AF444AD2F804231507D4
:1029E0007FF520AF00221A601B680493049B394BCB
:1029F0001A68012A46F008067FF419AF3B4AD2F85C
:102A00000423D4067FF513AF00221A601B680493D9
:102A1000049B314B1A68012A46F010067FF40CAF74
:102A2000324AD2F8042390067FF506AF00221A60DE
:102A30001B680493049B294B1A68012A46F0200660
:102A40007FF4FFAE294AD2F8042351067FF5F9AE90
:102A500000221A601B680493049B214B1A68012A08
:102A600046F040067FF4F2AE204AD2F80423120664
:102A70007FF5ECAE00221A6019680491196E049873
:102A8000012903F1600346F080067FF4E6AE1A6088
:102A90001B6805934FF0A043059AD3F810350193B6
:102AA00046F00046D9E600221A601B6805934FF0F5
:102AB000A043059AD3F810350193002E3FF4EAAEF7
:102AC000EEE700BF00610040046100400861004083
:102AD0000C6100401061004014610040186100402A
:102AE0001C6100407C610040D00700200060004075
:102AF0002DE9F84F164DDFF85C80814600264FF037
:102B0000010A03E0FEF740FAA5431BD0F7B200200C
:102B10000AFA07F4FEF730FA2C424FF0000006F1F3
:102B20000106EFD0D8F8003014EA030BEAD11C43B9
:102B3000584689F80070C8F80040FEF725FA584654
:102B4000BDE8F88F4FF0040B5846BDE8F88F00BF82
:102B5000FFFF0F001C080020D9B1D2B10123834030
:102B600010B4C3F3130484B10D4C2468234212D073
:102B7000C00000F1804303F5F8330020C3F81015BE
:102B8000C3F814255DF8044B704707205DF8044B2B
:102B900070470E20704708205DF8044B704700BF57
:102BA0001C080020012202FA00F3C3F313021AB139
:102BB000054A1268134204D0044A0020C2F80435C2
:102BC00070470820704700BF1C08002000F001403B
:102BD000F0B50779374E07EB470406EB840583B061
:102BE0002B7A002B63D1A4004FEA470C32514A687C
:102BF0006A6042797AB11A461D469B00046803F563
:102C0000A0730132E550E35844790193D3B29C425A
:102C1000DDF804E0F1D80268CB7842F30734002CE9
:102C20004FEA12323BDB04F1604404F561445B017E
:102C3000DBB284F8003303681F4D43F307340122ED
:102C40006409C3F3043302FA03F345F8243005683A
:102C50004B78D5F8044503F0030324F00304234321
:102C6000C5F8043505688B78D5F8084503F00303EB
:102C700024F003042343C5F8083500680B78D0F826
:102C80001015674421F00F0103F00F0306EB8706D0
:102C90000B43C0F810350020327203B0F0BD074C72
:102CA00002F00F025B011444DBB22376C3E7082075
:102CB00003B0F0BD2008002000E100E0FCEC00E0E3
:102CC0000368054A01211960037903EB430302EB12
:102CD000830302221A727047200800200368012231
:102CE0001A607047036801225A607047F0B40768A1
:102CF00040F20115D7F800428D4024EA0504C7F8D8
:102D00000042056882B0D5F800429DF81860234360
:102D10004FF48034C5F800328C409EB18B000568BA
:102D200003F5A0730026EE50ED5803680195019D50
:102D3000C3F80443036801F5A87143F8212002B0E9
:102D4000F0BC70470368C3F80843F3E72DE9F0418E
:102D5000114CDFF84C80114E82B000254FF48037C3
:102D6000236807FA05F101357BB1D8F80423A4F5EF
:102D7000004011424FF0000380B206D02360236868
:102D80000193D6E90031019A9847042D04F1040417
:102D9000E6D102B0BDE8F08140810040200800206B
:102DA000008000402DE9F041114CDFF84C80114EBD
:102DB00082B000254FF48037236807FA05F101350A
:102DC0007BB1D8F8042304F5E04011424FF0000332
:102DD00080B206D0236023680193D6E90331019ABB
:102DE0009847042D04F10404E6D102B0BDE8F08157
:102DF0004091004020080020009000402DE9F04163
:102E0000114CDFF84C80114E82B000254FF4803712
:102E1000236807FA05F101357BB1D8F8042304F5DE
:102E2000C04011424FF0000380B206D023602368F7
:102E30000193D6E90631019A9847042D04F1040460
:102E4000E6D102B0BDE8F08140A10040200800209A
:102E500000A00040014B1B68184700BF4408002039
:102E600038B50C4B984213D100200D46FEF784F87C
:102E7000094B1C7924B10020FEF786F8112038BDDB
:102E8000012220461D601A71FEF77EF8204638BDEB
:102E9000002038BD0020004044080020034B984229
:102EA00003D1034B00221A601A71704700200040C2
:102EB0004408002030B56E4AD2F8043399058BB02F
:102EC00068D5D2F82431002B64D00023C2F8243115
:102ED000D2F8243101934FF40171664B0198C2F886
:102EE000081393F8291009B90121516060490222A1
:102EF0008DF81820D1F88024C1F880249869D96809
:102F0000099200240025CDE90710C3E90645D3E95D
:102F1000001206A89047564AD2F81C31C3B1554B4F
:102F20005869196A88426AD993F8281001F0FF009D
:102F3000002964D1C2F81C01D2F81C110391039935
:102F40009C68186A196A205C01311962C2F81C0574
:102F5000474AD2F84431DBB10021464BC2F8441154
:102F6000D2F8440193F829100090009809B101218A
:102F700011609A6962B1586AD96800229A61012287
:102F8000CDE907108DF8182006A8D3E90012904764
:102F90000BB030BD364AD2F804335B07BBD5D2F84C
:102FA0000831002BB7D0334B996900293ED000215E
:102FB000C2F80811D2F8081104910499D868596A26
:102FC000D2F8182542545A6A996901325A625A6AEB
:102FD0008A42A0D1DA69002A31D0DD685C6A1869BA
:102FE0009A6101210022D860DA615A628DF81810C6
:102FF000CDE90754D3E9001206A890478BE71C4A95
:103000000021C2F81C11D2F81C210292029A5A69BE
:10301000002A9DD058699A688DF818100890596157
:10302000079206A8D3E90012904791E7C2F8081169
:10303000D2F8080105900598D2F81825C7E793F84B
:10304000292012B90A4A01215160094A4FF401713D
:10305000C2F80813596ADA6808910024012007921F
:103060008DF81800D3E900129C6106A8904752E73A
:1030700000200040500800202DE9F041604F067903
:103080002C2303FB067382B093F82A30002B40F008
:10309000898005460C4600685A499046FFF7E0FED5
:1030A00000287BD12368591C0CD001224FF0A0418D
:1030B00002FA03F3C1F80835236803F5E07303222D
:1030C00041F8232063685A1C06D003F5E0734FF0E3
:1030D000A042002142F823102B68A269C3F82425DE
:1030E000217D637D2A680B43C2F86C35D4E9001258
:1030F0002B68C3F81425C3F80C15237D012B5DD074
:103100002C2303FB06F3FA18C2F804802269FA5054
:10311000B8F1000F2FD02A68237F3B4C0021C2F862
:103120001C11D2F81C2100922A68DDF800C0C2F8F8
:103130004411D2F844112A6801910199C2F804435C
:103140002A6842F3073100294FEA12322EDB01F1DF
:10315000604101F561415B01DBB281F800332B680E
:103160002A4C43F307325209C3F30433012101FA15
:1031700003F344F822302C23296803FB0676042449
:1031800000230122C1F80045C6E9063386F82A204B
:1031900086F82930736102B0BDE8F081112002B0D9
:1031A000BDE8F081082002B0BDE8F081184902F0C6
:1031B0000F025B011144DBB20B76D0E7A368591C08
:1031C00006D003F5E0734FF0A042002142F823102F
:1031D000E3685A1C0DD001224FF0A04102FA03F31C
:1031E000C1F80835E36803F5E073032241F82320B2
:1031F000E3682A68A168C2F80835C2F810157FE7AD
:1032000050080020B52E00008000020000E100E020
:10321000FCEC00E0F8B52F4D047902682C2303FB89
:10322000045300215B68C2F8001583B103682A4A81
:10323000C3F808230268294E42F307335B092033A1
:10324000C2F30432012101FA02F246F82320036896
:103250004FF0FF32D3F80CC5D3F81475D3F8081526
:10326000D3F81065C3F81425C3F80C2503689445FA
:10327000C3F80825C3F8102506D00CF5E07C4FF004
:10328000A043022243F82C207B1C06D007F5E077F0
:103290004FF0A043022243F82720721C06D006F507
:1032A000E0764FF0A043022243F826204B1C06D0C4
:1032B00001F5E0714FF0A043022243F8212000689D
:1032C000FFF7ECFD2C2303FB0454002384F82A3081
:1032D0006360F8BD500800208402020000E100E0B5
:1032E0002DE9F041314E05792C2303FB056304469B
:1032F000586984B000284CD15A619960186283F8EB
:1033000028002268C2F81C01D2F81C112268029120
:103310000121029F91602268D3F808C0C2F81C0105
:10332000D2F81C11019101991F6A196A1CF80770E3
:1033300001311962C2F81C755A6812B104B0BDE8B7
:10334000F0815F691A6A216897421BD9864602E0BC
:1033500093F828200ABBD1F81C21002AF8D0C1F824
:103360001CE1D1F81C210392039AD3F820801A6A39
:103370001CF8088001321A62C1F81C851A6A97424B
:10338000E9D82168D1F81C31002BFBD00123CB6098
:1033900004E0112004B0BDE8F0810F202C2303FBD2
:1033A000056500236B6104B0BDE8F0815008002082
:1033B00030B5574BD3F824218BB0002A75D00022AA
:1033C000C3F82421D3F82421049202228DF8182076
:1033D000049AD3F880144F4AC3F880140991D3F8A3
:1033E0003C15D3680891002400250793C2E90645DF
:1033F0001168536806A89847454BD3F8442152B149
:103400000021444AC3F84411D3F844019169039060
:103410000398002938D13E4BD3F820215AB100211E
:10342000C3F82011D3F8202102920120394A029CCE
:10343000D8605069D8B9364BD3F85821AAB10021C9
:10344000C3F85811D3F85801324A019001985069D5
:1034500058B1D3F84C05936808908DF81810516155
:10346000079306A8D2E9001398470BB030BDD3F8F4
:103470004C05936808908DF818105161079306A8C1
:10348000D2E900139847D6E7D3F83C35D1680893C2
:1034900000240025012307918DF81830C2E9064564
:1034A000D2E9001306A89847B5E7D3F81011002910
:1034B000A2D0C3F81021D3F8101116480591059930
:1034C0008469D3F83C15A14296D1C469A4B1D3F85C
:1034D0000052846125F02005C3F80052D0E903436F
:1034E000C26101220891C3600168436807948DF8A6
:1034F000182006A898477FE7C26884610123CDE9B8
:1035000007218DF81830D0E9001306A8984773E713
:1035100000200040800800202DE9F04307796E4E1E
:1035200007EBC70306EB830387B093F82030002B2B
:1035300040F0A38004460D46006868499146FFF7B5
:103540008FFC002840F095802B68591C4FEAC70873
:103550000CD001224FF0A04102FA03F3C1F8083564
:103560002B6803F5E073032241F823206B685A1C93
:1035700006D003F5E0734FF0A042002142F823107B
:103580002368A969C3F82415297D6A7D23680A4345
:10359000C3F86C25D5E900312268C2F80C35C2F8B1
:1035A00014152B7D012B74D008EB070206EB820368
:1035B000C3F804902B6946F82230B9F1000F47D0C8
:1035C00021682B7F464D0022C1F81021D1F810113F
:1035D00001912168DDF804C0C1F82021D1F8201143
:1035E00002912168DDF808C0C1F82421D1F8241126
:1035F00003912168DDF80CC0C1F84421D1F84411D1
:1036000004912168DDF810C0C1F85821D1F8581193
:10361000226805910599C2F80453226842F30731E4
:1036200000294FEA12322CDB01F1604101F56141C2
:103630005B01DBB281F8003323682A4D43F3073284
:103640005209C3F30433012101FA03F345F8223090
:103650004744226806EB8706002301240821C2F8AC
:103660000015C6E9063386F82040736107B0BDE84F
:10367000F083112007B0BDE8F083082007B0BDE853
:10368000F083194902F00F025B011144DBB20B76A3
:10369000D2E7AB68591C06D003F5E0734FF0A042A7
:1036A000002142F82310EB685A1C0DD001224FF084
:1036B000A04102FA03F3C1F80835EB6803F5E073A3
:1036C000032241F82320EB682268A968C2F8083574
:1036D000C2F8101568E700BF80080020B133000071
:1036E0001003420000E100E0FCEC00E0F0B50579D9
:1036F0003D4C05EBC50304EB830383B05B68EE0030
:1037000083B10368394AC3F808230268384F42F38B
:1037100007335B092033C2F30432012101FA02F2BC
:1037200047F823200268D2F8003223F02003C2F8C1
:10373000003202680123536002680021C2F8581168
:10374000D2F85811026801910199D3600268D2F849
:103750005831002BFBD00023C2F8003503684FF02E
:10376000FF32D3F80CE5D3F814C5D3F80815D3F815
:103770001075C3F80C25C3F8142503689645C3F8E3
:103780000825C3F8102506D00EF5E07E4FF0A043C3
:10379000022243F82E20BCF1FF3F06D00CF5E07C5E
:1037A0004FF0A043022243F82C207A1C06D007F5E4
:1037B000E0774FF0A043022243F827204B1C06D0AD
:1037C00001F5E0714FF0A043022243F82120006888
:1037D000FFF764FB354404EB8504002384F82030B4
:1037E000636003B0F0BD00BF8008002010034200FA
:1037F00000E100E0F0B401F06044B4F1005F82B099
:103800002CD10579274E05EBC50406EB840403464D
:103810006069EF0000283ED16261A1601A68C2F8B9
:103820002001D2F820C11A68CDF804C0DDF804C028
:10383000C2F85801D2F8582100921A68DDF800C089
:10384000D4F814C0C2F84415C2F848C51A6801215A
:103850009160626832B102B0F0BC7047102002B0D3
:10386000F0BC70471A6800E0C8B9D2F82011D2F84D
:1038700058010029F8D090B90121D1601B68D3F814
:103880005821002AFBD07B1906EB830300225A61E2
:1038900002B0F0BC7047112002B0F0BC70470F209E
:1038A000F1E700BF800800201F20FEF76FBF00BFB8
:1038B00010B5084C1320FEF73BFE2378022B00D0F6
:1038C00010BD0548FFF70AFA1120FEF731FE032369
:1038D000237010BDD4080020C041000038B5154C3D
:1038E0002368013323602368322B13D02368DB075E
:1038F0000FD52368302B0CD80F4B1A684FF0A0411E
:1039000052001A60D1F81025002A02DA1A68013232
:103910001A6038BD0948FFF7E5F9074A08481368F7
:10392000084983F4000313600225012305700B602E
:10393000DCE700BFB0080020A8080020C04100005C
:10394000D4080020A40800202DE9F04F4FF40041D6
:1039500087B00020FCF7FCFD002840F0B580FCF7A4
:10396000E7FDFEF74FFBFEF713FD664B9DF81220B7
:103970001B68ADF80C304FF0A04022F00702012187
:103980001B0C00248DF81220ADF810108DF80E30AD
:103990005D4AC0F87C4704A91F20FEF7F9FD002806
:1039A00040F0AD8003A91C20FEF73AFD002840F04E
:1039B000A3805648FFF79CF8002840F09A80534CAB
:1039C0001C202578FEF7D6FD514902462846FFF710
:1039D000C3F8002840F08A802078FFF7E3F8002839
:1039E00040F081801C20FEF7B3FD01211F20FEF76F
:1039F0006FFE0120FDF754FAFEF7A4FB00286FD1FB
:103A00000020FEF7BBFBFDF7ABFD424A4248012117
:103A1000FDF7FAFD002860D1404B414A414800249F
:103A200004A9CDE90434FFF7D3F8002852D13E4B66
:103A30003C48D3F81025A0210123D2B221FA02F28A
:103A400000930021FFF752F93648FFF739F937485C
:103A500000224FF4A021FDF7E9FD002837D1344DB5
:103A6000344B354C354EDFF8DCB0DFF8DCA0DFF846
:103A7000DC90DFF8DC80324FED1AED082D0445F0C4
:103A800003052368002BFCD0326849462846FCF722
:103A9000BBFFFCF7B7FD0028FBD1DBF80020414657
:103AA0002846FCF7B1FFFCF7ADFD0028FBD1DAF8A2
:103AB000002039462846FCF7A7FFFCF7A3FD0028A5
:103AC000FBD120603060DCE7FDF70EFA47E7FDF739
:103AD0000BFAC4E7FDF708FAA9E7FDF705FA9BE73B
:103AE000FDF702FA8CE7FDF7FFF97BE7FDF7FCF93C
:103AF00072E7FDF7F9F962E7FDF7F6F959E7FDF727
:103B0000F3F94FE7B8410000A9380000D5080020BC
:103B100040810040B1380000BC41000004000006B4
:103B2000DD380000C041000000800040B4080020E3
:103B300014430000D4420000A4080020B008002074
:103B4000AC410000AC080020A8080020844100001F
:103B50009841000030B4B84B1B78062B20D0B74BEF
:103B60001B68062B00F08180B54AD2F8883043F4F8
:103B70007003C2F88830BFF34F8FBFF36F8F4FF0E1
:103B80001023D3F80022002AC0F28681D3F8043231
:103B9000002BC0F28181AB4BAB4A1A6030BC70473E
:103BA000AA4B1B681D07DAD1A94B1B6803F0F00272
:103BB000302A00F09B8003F0E003402B00F0968059
:103BC000A34B1B6803F0F003302B00F0A080A04B48
:103BD0001B6803F0F002302A77D003F0E003402B9B
:103BE00073D09B4B1B6803F0F003302B00F0148163
:103BF000974B1B6803F0F002302A52D003F0E00329
:103C0000402B4ED0924B1B6803F0F003302B00F09A
:103C1000F5808F4B1B6803F0F003302B00F0D7804A
:103C20008B4B1B6803F0F003502B7ED0884B1B6836
:103C300003F0F002302A23D003F0E003402B1FD022
:103C4000834B1B6803F0F002302A03D003F0E0033B
:103C5000402B84D14FF08043D3F80024D20744BFD7
:103C60006FF00102C3F8002479E77A4B1B68062B3A
:103C70007FF47AAF784A136843F48063136073E784
:103C8000764B6D4A1B681278754903F04F03062A7C
:103C90000B607FF464AF6D4B1B6819077FF45FAF57
:103CA000CEE7654A11784FF0804300220629C3F819
:103CB0000C21C3F81021C3F838257FF450AF634BB3
:103CC0001B681B077FF44BAF9CE7664B5A4A1B6887
:103CD00012786549C3F34233062A0B607FF43FAF85
:103CE0005A4B1B6819077FF43AAF7AE75F4B524A89
:103CF0001B6812785E49C3F30423062A0B607FF425
:103D00002EAF524B1B681C077FF429AF58E74A4B74
:103D1000584A1B7858491160062B7FF420AF4B4B53
:103D20001B6818077FF41BAF51E74FF08052534BCD
:103D3000D2F80414C3F82015D2F80814C3F82415D7
:103D4000D2F80C14C3F82815D2F81014C3F82C15A7
:103D5000D2F81414C3F83015D2F81814C3F8341577
:103D6000D2F81C14C3F84015D2F82014C3F8441537
:103D7000D2F82414C3F84815D2F82814C3F84C1507
:103D8000D2F82C14C3F85015D2F83014C3F85415D7
:103D9000D2F83414C3F86015D2F83814C3F8641597
:103DA000D2F83C14C3F86815D2F840142248C3F87E
:103DB0006C15D2F844140278C3F87015062A7FF403
:103DC000CEAE224B1B6818077FF4C9AE2EE71A4B04
:103DD0002B4C1B782B492C482C4A052525600125A6
:103DE0000D6000243F21062B046011607FF4B7AE04
:103DF000164B1B681C077FF4B2AE11E70E4B244A2A
:103E00001B780321062B11607FF4A9AE0F4B1B68B2
:103E10001D077FF4A4AEFCE61E4A0749D368097863
:103E200023F080730629D3607FF499AE074B1B689B
:103E30001A077FF494AEDBE6E00F00F030010010CB
:103E400000ED00E01C0000200090D003E40F00F023
:103E5000E80F00F0340100103C1700405802001039
:103E6000E40E0040440200103C0500402403001012
:103E70004035014074C007400DF0ADBA00C00040AD
:103E80001056004088560040185600401456004016
:103E9000A0050040F0ED00E0184A0123C2F8043507
:103EA000D2F80034002BFBD04FF010231521134A19
:103EB000C3F80012D2F80034002BFBD04FF01023CF
:103EC00015210E4AC3F80412D2F80034002BFBD09F
:103ED00000230A49C2F80435D1F80034002BFBD086
:103EE000BFF34F8F0649074BCA6802F4E0621343E1
:103EF000CB60BFF34F8F00BFFDE700BF00E0014084
:103F000000ED00E00400FA0508B5074B044613B1C4
:103F10000021AFF30080054B1868836A03B198470E
:103F2000204600F047F800BF00000000CC4200002F
:103F300070B50D4D0D4C641BA4100026A64209D18E
:103F40000B4D0C4C00F038F8641BA4100026A64260
:103F500005D170BD55F8043B98470136EEE755F89A
:103F6000043B98470136F2E78000002080000020E3
:103F700080000020840000200A44914200F1FF33B9
:103F800000D1704710B511F8014B03F8014F914271
:103F9000F9D110BD02440346934200D1704703F8A3
:103FA000011BF9E7034613F8012B002AFBD1181A6D
:103FB00001387047FEE700BFF8B500BFF8BC08BC89
:103FC0009E467047F8B500BFF8BC08BC9E467047D7
:103FD000FFFFFFFFFFFFFFFFFFFFFFFFFFFFFFFFF1
:103FE00000000000000000000000D60106010000F3
:103FF000E10300004D040000DD03000075617274F0
:104000005F6C6F675F6261636B656E6400000000E8
:104010004261636B656E647320666C75736865647A
:104020000000000061707000E40500207F000000C7
:10403000640600201B5B313B33316D0025734C6FF0
:1040400067732064726F7070656420282564292569
:10405000730D0A001B5B306D00000000257300002B
:104060003C25733E2025733A200000000D0A000015
:104070002025303278000000202020007C00000045
:10408000256300001B5B313B33306D001B5B313B14
:1040900033326D001B5B313B33336D001B5B313BB7
:1040A00033346D001B5B313B33356D001B5B313BA3
:1040B00033366D001B5B313B33376D006572726FB9
:1040C000720000007761726E696E6700696E666FDC
:1040D0000000000064656275670000005440000045
:1040E00084400000344000008C40000094400000F8
:1040F0009C400000A4400000AC400000B440000020
:1041000000000000BC400000C4400000CC400000A3
:10411000D4400000466174616C206572726F720059
:1041200053797374656D20726573657400000000C7
:104130000338FDD87047000030313233343536371C
:104140003839414243444546636C6F636B0000005D
:10415000434C4F434B000000525443004750494FDB
:10416000544500005050490054494D45520000004C
:1041700050525300554152540000000055415254D2
:10418000450000006F757420696D70756C73657300
:10419000202575200A000000696D70207265636932
:1041A000657665202575200A000000006275666648
:1041B0006572202575200A0003000100B408002064
:1041C000008000400004000000202020202020204B
:1041D00020202828282828202020202020202020B7
:1041E00020202020202020202088101010101010C7
:1041F0001010101010101010100404040404040413
:1042000004040410101010101010414141414141AC
:10421000010101010101010101010101010101018E
:10422000010101011010101010104242424242429E
:10423000020202020202020202020202020202025E
:104240000202020210101010200000000000000006
:10425000000000000000000000000000000000005E
:10426000000000000000000000000000000000004E
:10427000000000000000000000000000000000003E
:10428000000000000000000000000000000000002E
:10429000000000000000000000000000000000001E
:1042A000000000000000000000000000000000000E
:1042B00000000000000000000000000000000000FE
:1042C00000000000000000000000000020000020AE
:0442D00000000000EA
:1042D40050410000000000005C41000000000000AC
:1042E4006441000000000000704100000000000074
:1042F4005841000000000000684100000000000078
:1043040074410000000000007C4100000000000037
:1043140024400000000003034841000000000000A6
:10432400F03F000000000000FC3F000014000020EB
:10433400EC000020B4010020BC010020F4000020A7
:04434400180000005D
:08434800F8BEFF7F0100000038
:10435000000000000020004000000000002000409D
:104360000000000000000000FF0000000090D003EB
:10437000000000000000000000000000000000003D
:10438000000000000000000000000000000000002D
:10439000000000000000000000000000000000001D
:1043A000000000000000000000000000000000000D
:1043B00000000000000000000000000000000000FD
:1043C00000000000000000000000000000000000ED
:0843D0002502000001020000BB
:04000003000002BD3A
:00000001FF
